{
  "contractName": "Certificates",
  "abi": [
    {
      "inputs": [
        {
          "internalType": "address",
          "name": "_identityContract",
          "type": "address"
        }
      ],
      "stateMutability": "nonpayable",
      "type": "constructor"
    },
    {
      "anonymous": false,
      "inputs": [
        {
          "indexed": true,
          "internalType": "bytes32",
          "name": "certificateId",
          "type": "bytes32"
        },
        {
          "indexed": true,
          "internalType": "address",
          "name": "student",
          "type": "address"
        },
        {
          "indexed": true,
          "internalType": "address",
          "name": "institution",
          "type": "address"
        }
      ],
      "name": "CertificateIssued",
      "type": "event"
    },
    {
      "anonymous": false,
      "inputs": [
        {
          "indexed": true,
          "internalType": "bytes32",
          "name": "certificateId",
          "type": "bytes32"
        }
      ],
      "name": "CertificateRevoked",
      "type": "event"
    },
    {
      "inputs": [
        {
          "internalType": "bytes32",
          "name": "",
          "type": "bytes32"
        }
      ],
      "name": "certificates",
      "outputs": [
        {
          "internalType": "address",
          "name": "student",
          "type": "address"
        },
        {
          "internalType": "address",
          "name": "institution",
          "type": "address"
        },
        {
          "internalType": "string",
          "name": "ipfsHash",
          "type": "string"
        },
        {
          "internalType": "uint256",
          "name": "issuedAt",
          "type": "uint256"
        },
        {
          "internalType": "bool",
          "name": "isValid",
          "type": "bool"
        }
      ],
      "stateMutability": "view",
      "type": "function",
      "constant": true
    },
    {
      "inputs": [],
      "name": "identityContract",
      "outputs": [
        {
          "internalType": "contract Identity",
          "name": "",
          "type": "address"
        }
      ],
      "stateMutability": "view",
      "type": "function",
      "constant": true
    },
    {
      "inputs": [
        {
          "internalType": "address",
          "name": "",
          "type": "address"
        },
        {
          "internalType": "uint256",
          "name": "",
          "type": "uint256"
        }
      ],
      "name": "studentCertificates",
      "outputs": [
        {
          "internalType": "bytes32",
          "name": "",
          "type": "bytes32"
        }
      ],
      "stateMutability": "view",
      "type": "function",
      "constant": true
    },
    {
      "inputs": [
        {
          "internalType": "address",
          "name": "_student",
          "type": "address"
        },
        {
          "internalType": "string",
          "name": "_ipfsHash",
          "type": "string"
        }
      ],
      "name": "issueCertificate",
      "outputs": [
        {
          "internalType": "bytes32",
          "name": "",
          "type": "bytes32"
        }
      ],
      "stateMutability": "nonpayable",
      "type": "function"
    },
    {
      "inputs": [
        {
          "internalType": "bytes32",
          "name": "_certificateId",
          "type": "bytes32"
        }
      ],
      "name": "revokeCertificate",
      "outputs": [],
      "stateMutability": "nonpayable",
      "type": "function"
    },
    {
      "inputs": [
        {
          "internalType": "bytes32",
          "name": "_certificateId",
          "type": "bytes32"
        }
      ],
      "name": "verifyCertificate",
      "outputs": [
        {
          "internalType": "address",
          "name": "student",
          "type": "address"
        },
        {
          "internalType": "address",
          "name": "institution",
          "type": "address"
        },
        {
          "internalType": "string",
          "name": "ipfsHash",
          "type": "string"
        },
        {
          "internalType": "uint256",
          "name": "issuedAt",
          "type": "uint256"
        },
        {
          "internalType": "bool",
          "name": "isValid",
          "type": "bool"
        }
      ],
      "stateMutability": "view",
      "type": "function",
      "constant": true
    },
    {
      "inputs": [
        {
          "internalType": "address",
          "name": "_student",
          "type": "address"
        }
      ],
      "name": "getStudentCertificates",
      "outputs": [
        {
          "internalType": "bytes32[]",
          "name": "",
          "type": "bytes32[]"
        }
      ],
      "stateMutability": "view",
      "type": "function",
      "constant": true
    }
  ],
  "bytecode": "0x608060405234801561001057600080fd5b50604051610e3d380380610e3d83398101604081905261002f91610059565b6001600081905580546001600160a01b0319166001600160a01b0392909216919091179055610089565b60006020828403121561006b57600080fd5b81516001600160a01b038116811461008257600080fd5b9392505050565b610da5806100986000396000f3fe608060405234801561001057600080fd5b506004361061007d5760003560e01c8063bb721aab1161005b578063bb721aab146100e9578063c3934f0e1461010a578063c6cbc52a1461011d578063ebc63bc01461013257600080fd5b806367031bae14610082578063742f0688146100b2578063850c1768146100d6575b600080fd5b600154610095906001600160a01b031681565b6040516001600160a01b0390911681526020015b60405180910390f35b6100c56100c0366004610963565b610152565b6040516100a99594939291906109a0565b6100c56100e4366004610963565b61021c565b6100fc6100f7366004610a2e565b61038e565b6040519081526020016100a9565b6100fc610118366004610af0565b610718565b61013061012b366004610963565b610749565b005b610145610140366004610b1a565b61089e565b6040516100a99190610b3c565b60026020819052600091825260409091208054600182015492820180546001600160a01b0392831694909216929161018990610b80565b80601f01602080910402602001604051908101604052809291908181526020018280546101b590610b80565b80156102025780601f106101d757610100808354040283529160200191610202565b820191906000526020600020905b8154815290600101906020018083116101e557829003601f168201915b50505050600383015460049093015491929160ff16905085565b6000818152600260208181526040808420815160a08101835281546001600160a01b03908116825260018301541693810193909352928301805485946060948694859485949293929184019161027190610b80565b80601f016020809104026020016040519081016040528092919081815260200182805461029d90610b80565b80156102ea5780601f106102bf576101008083540402835291602001916102ea565b820191906000526020600020905b8154815290600101906020018083116102cd57829003601f168201915b50505091835250506003820154602082015260049091015460ff16151560409091015260608101519091506103665760405162461bcd60e51b815260206004820152601a60248201527f436572746966696361746520646f6573206e6f7420657869737400000000000060448201526064015b60405180910390fd5b8051602082015160408301516060840151608090940151929a91995097509195509350915050565b60006002600154604051632782085160e01b81523360048201526001600160a01b0390911690632782085190602401602060405180830381865afa1580156103da573d6000803e3d6000fd5b505050506040513d601f19601f820116820180604052508101906103fe9190610bd0565b600381111561040f5761040f610bba565b1480156104835750600154604051633da1c0c360e01b81523360048201526001600160a01b0390911690633da1c0c390602401602060405180830381865afa15801561045f573d6000803e3d6000fd5b505050506040513d601f19601f820116820180604052508101906104839190610bf1565b6104cf5760405162461bcd60e51b815260206004820152601a60248201527f4e6f74206120766572696669656420696e737469747574696f6e000000000000604482015260640161035d565b6104d761090a565b6001600160a01b03831661052d5760405162461bcd60e51b815260206004820152601760248201527f496e76616c69642073747564656e742061646472657373000000000000000000604482015260640161035d565b60008251116105725760405162461bcd60e51b8152602060048201526011602482015270092dcecc2d8d2c84092a08ca640d0c2e6d607b1b604482015260640161035d565b60008333844260405160200161058b9493929190610c13565b60408051601f19818403018152918152815160209283012060008181526002909352912060030154909150156106035760405162461bcd60e51b815260206004820152601a60248201527f436572746966696361746520616c726561647920657869737473000000000000604482015260640161035d565b6040805160a0810182526001600160a01b038087168252336020808401918252838501888152426060860152600160808601819052600088815260029384905296909620855181549086166001600160a01b0319918216178255935196810180549790951696909316959095179092559251919291908201906106869082610caf565b5060608201516003828101919091556080909201516004909101805460ff19169115159190911790556001600160a01b03851660008181526020928352604080822080546001810182559083529382209093018490559151339284917f96acc7d29f59de96f3b52573049182d873062e60b6dd01e0bf81b3cb8f1078229190a490506107126001600055565b92915050565b6003602052816000526040600020818154811061073457600080fd5b90600052602060002001600091509150505481565b61075161090a565b600081815260026020526040902060038101546107b05760405162461bcd60e51b815260206004820152601a60248201527f436572746966696361746520646f6573206e6f74206578697374000000000000604482015260640161035d565b60018101546001600160a01b031633146108055760405162461bcd60e51b81526020600482015260166024820152752737ba1031b2b93a34b334b1b0ba329034b9b9bab2b960511b604482015260640161035d565b600481015460ff166108595760405162461bcd60e51b815260206004820152601b60248201527f436572746966696361746520616c7265616479207265766f6b65640000000000604482015260640161035d565b60048101805460ff1916905560405182907f44d80a438cb4fa3b5aedbe551ce3d9382e37f446917b783e1dee70a03b4180e390600090a25061089b6001600055565b50565b6001600160a01b0381166000908152600360209081526040918290208054835181840281018401909452808452606093928301828280156108fe57602002820191906000526020600020905b8154815260200190600101908083116108ea575b50505050509050919050565b60026000540361095c5760405162461bcd60e51b815260206004820152601f60248201527f5265656e7472616e637947756172643a207265656e7472616e742063616c6c00604482015260640161035d565b6002600055565b60006020828403121561097557600080fd5b5035919050565b60005b8381101561099757818101518382015260200161097f565b50506000910152565b600060018060a01b03808816835280871660208401525060a0604083015284518060a08401526109d78160c085016020890161097c565b606083019490945250901515608082015260c0601f909201601f191601019392505050565b80356001600160a01b0381168114610a1357600080fd5b919050565b634e487b7160e01b600052604160045260246000fd5b60008060408385031215610a4157600080fd5b610a4a836109fc565b9150602083013567ffffffffffffffff80821115610a6757600080fd5b818501915085601f830112610a7b57600080fd5b813581811115610a8d57610a8d610a18565b604051601f8201601f19908116603f01168101908382118183101715610ab557610ab5610a18565b81604052828152886020848701011115610ace57600080fd5b8260208601602083013760006020848301015280955050505050509250929050565b60008060408385031215610b0357600080fd5b610b0c836109fc565b946020939093013593505050565b600060208284031215610b2c57600080fd5b610b35826109fc565b9392505050565b6020808252825182820181905260009190848201906040850190845b81811015610b7457835183529284019291840191600101610b58565b50909695505050505050565b600181811c90821680610b9457607f821691505b602082108103610bb457634e487b7160e01b600052602260045260246000fd5b50919050565b634e487b7160e01b600052602160045260246000fd5b600060208284031215610be257600080fd5b815160048110610b3557600080fd5b600060208284031215610c0357600080fd5b81518015158114610b3557600080fd5b60006bffffffffffffffffffffffff19808760601b168352808660601b166014840152508351610c4a81602885016020880161097c565b6028920191820192909252604801949350505050565b601f821115610caa57600081815260208120601f850160051c81016020861015610c875750805b601f850160051c820191505b81811015610ca657828155600101610c93565b5050505b505050565b815167ffffffffffffffff811115610cc957610cc9610a18565b610cdd81610cd78454610b80565b84610c60565b602080601f831160018114610d125760008415610cfa5750858301515b600019600386901b1c1916600185901b178555610ca6565b600085815260208120601f198616915b82811015610d4157888601518255948401946001909101908401610d22565b5085821015610d5f5787850151600019600388901b60f8161c191681555b5050505050600190811b0190555056fea26469706673582212201ab28cd962e47a6d3512722b593e56af6a10220ebb745232f736aff2715f838b64736f6c63430008140033",
  "immutableReferences": {},
  "source": "// SPDX-License-Identifier: MIT\npragma solidity ^0.8.19;\n\nimport \"@openzeppelin/contracts/security/ReentrancyGuard.sol\";\nimport \"./Identity.sol\";\n\ncontract Certificates is ReentrancyGuard {\n    Identity public identityContract;\n    \n    struct Certificate {\n        address student;\n        address institution;\n        string ipfsHash;\n        uint256 issuedAt;\n        bool isValid;\n    }\n    \n    // certificateId => Certificate\n    mapping(bytes32 => Certificate) public certificates;\n    // student => certificateIds[]\n    mapping(address => bytes32[]) public studentCertificates;\n    \n    event CertificateIssued(bytes32 indexed certificateId, address indexed student, address indexed institution);\n    event CertificateRevoked(bytes32 indexed certificateId);\n    \n    constructor(address _identityContract) {\n        identityContract = Identity(_identityContract);\n    }\n    \n    modifier onlyVerifiedInstitution() {\n        require(\n            identityContract.getUserRole(msg.sender) == Identity.UserRole.INSTITUTION &&\n            identityContract.isVerifiedUser(msg.sender),\n            \"Not a verified institution\"\n        );\n        _;\n    }\n    \n    function issueCertificate(\n        address _student,\n        string memory _ipfsHash\n    ) external onlyVerifiedInstitution nonReentrant returns (bytes32) {\n        require(_student != address(0), \"Invalid student address\");\n        require(bytes(_ipfsHash).length > 0, \"Invalid IPFS hash\");\n        \n        bytes32 certificateId = keccak256(\n            abi.encodePacked(_student, msg.sender, _ipfsHash, block.timestamp)\n        );\n        \n        require(certificates[certificateId].issuedAt == 0, \"Certificate already exists\");\n        \n        certificates[certificateId] = Certificate(\n            _student,\n            msg.sender,\n            _ipfsHash,\n            block.timestamp,\n            true\n        );\n        \n        studentCertificates[_student].push(certificateId);\n        \n        emit CertificateIssued(certificateId, _student, msg.sender);\n        \n        return certificateId;\n    }\n    \n    function revokeCertificate(bytes32 _certificateId) external nonReentrant {\n        Certificate storage cert = certificates[_certificateId];\n        require(cert.issuedAt > 0, \"Certificate does not exist\");\n        require(cert.institution == msg.sender, \"Not certificate issuer\");\n        require(cert.isValid, \"Certificate already revoked\");\n        \n        cert.isValid = false;\n        emit CertificateRevoked(_certificateId);\n    }\n    \n    function verifyCertificate(bytes32 _certificateId) external view returns (\n        address student,\n        address institution,\n        string memory ipfsHash,\n        uint256 issuedAt,\n        bool isValid\n    ) {\n        Certificate memory cert = certificates[_certificateId];\n        require(cert.issuedAt > 0, \"Certificate does not exist\");\n        \n        return (\n            cert.student,\n            cert.institution,\n            cert.ipfsHash,\n            cert.issuedAt,\n            cert.isValid\n        );\n    }\n    \n    function getStudentCertificates(address _student) external view returns (bytes32[] memory) {\n        return studentCertificates[_student];\n    }\n} ",
  "sourcePath": "H:\\projects\\education\\contracts\\Certificates.sol",
  "compiler": {
    "name": "solc",
    "version": "0.8.20+commit.a1b79de6.Emscripten.clang"
  },
  "schemaVersion": "3.4.16",
  "updatedAt": "2025-04-01T20:13:53.350Z",
  "networkType": "ethereum",
  "devdoc": {
    "kind": "dev",
    "methods": {},
    "version": 1
  },
  "userdoc": {
    "kind": "user",
    "methods": {},
    "version": 1
  }
}