{
  "contractName": "Examinations",
  "abi": [
    {
      "inputs": [
        {
          "internalType": "address",
          "name": "_identityContract",
          "type": "address"
        }
      ],
      "stateMutability": "nonpayable",
      "type": "constructor"
    },
    {
      "anonymous": false,
      "inputs": [
        {
          "indexed": true,
          "internalType": "bytes32",
          "name": "examId",
          "type": "bytes32"
        },
        {
          "indexed": true,
          "internalType": "address",
          "name": "student",
          "type": "address"
        }
      ],
      "name": "AnswersSubmitted",
      "type": "event"
    },
    {
      "anonymous": false,
      "inputs": [
        {
          "indexed": true,
          "internalType": "bytes32",
          "name": "examId",
          "type": "bytes32"
        },
        {
          "indexed": true,
          "internalType": "address",
          "name": "institution",
          "type": "address"
        }
      ],
      "name": "ExaminationCreated",
      "type": "event"
    },
    {
      "anonymous": false,
      "inputs": [
        {
          "indexed": true,
          "internalType": "bytes32",
          "name": "examId",
          "type": "bytes32"
        },
        {
          "indexed": true,
          "internalType": "address",
          "name": "student",
          "type": "address"
        },
        {
          "indexed": false,
          "internalType": "uint256",
          "name": "grade",
          "type": "uint256"
        }
      ],
      "name": "GradeAssigned",
      "type": "event"
    },
    {
      "anonymous": false,
      "inputs": [
        {
          "indexed": true,
          "internalType": "bytes32",
          "name": "examId",
          "type": "bytes32"
        },
        {
          "indexed": true,
          "internalType": "address",
          "name": "student",
          "type": "address"
        }
      ],
      "name": "StudentRegistered",
      "type": "event"
    },
    {
      "inputs": [
        {
          "internalType": "bytes32",
          "name": "",
          "type": "bytes32"
        }
      ],
      "name": "examinations",
      "outputs": [
        {
          "internalType": "address",
          "name": "institution",
          "type": "address"
        },
        {
          "internalType": "string",
          "name": "ipfsHash",
          "type": "string"
        },
        {
          "internalType": "uint256",
          "name": "startTime",
          "type": "uint256"
        },
        {
          "internalType": "uint256",
          "name": "endTime",
          "type": "uint256"
        },
        {
          "internalType": "bool",
          "name": "isActive",
          "type": "bool"
        }
      ],
      "stateMutability": "view",
      "type": "function",
      "constant": true
    },
    {
      "inputs": [],
      "name": "identityContract",
      "outputs": [
        {
          "internalType": "contract Identity",
          "name": "",
          "type": "address"
        }
      ],
      "stateMutability": "view",
      "type": "function",
      "constant": true
    },
    {
      "inputs": [
        {
          "internalType": "address",
          "name": "",
          "type": "address"
        },
        {
          "internalType": "uint256",
          "name": "",
          "type": "uint256"
        }
      ],
      "name": "institutionExams",
      "outputs": [
        {
          "internalType": "bytes32",
          "name": "",
          "type": "bytes32"
        }
      ],
      "stateMutability": "view",
      "type": "function",
      "constant": true
    },
    {
      "inputs": [
        {
          "internalType": "address",
          "name": "",
          "type": "address"
        },
        {
          "internalType": "uint256",
          "name": "",
          "type": "uint256"
        }
      ],
      "name": "studentExams",
      "outputs": [
        {
          "internalType": "bytes32",
          "name": "",
          "type": "bytes32"
        }
      ],
      "stateMutability": "view",
      "type": "function",
      "constant": true
    },
    {
      "inputs": [
        {
          "internalType": "string",
          "name": "_ipfsHash",
          "type": "string"
        },
        {
          "internalType": "uint256",
          "name": "_startTime",
          "type": "uint256"
        },
        {
          "internalType": "uint256",
          "name": "_endTime",
          "type": "uint256"
        }
      ],
      "name": "createExamination",
      "outputs": [
        {
          "internalType": "bytes32",
          "name": "",
          "type": "bytes32"
        }
      ],
      "stateMutability": "nonpayable",
      "type": "function"
    },
    {
      "inputs": [
        {
          "internalType": "bytes32",
          "name": "_examId",
          "type": "bytes32"
        }
      ],
      "name": "registerForExam",
      "outputs": [],
      "stateMutability": "nonpayable",
      "type": "function"
    },
    {
      "inputs": [
        {
          "internalType": "bytes32",
          "name": "_examId",
          "type": "bytes32"
        },
        {
          "internalType": "string",
          "name": "_answersIpfsHash",
          "type": "string"
        }
      ],
      "name": "submitAnswers",
      "outputs": [],
      "stateMutability": "nonpayable",
      "type": "function"
    },
    {
      "inputs": [
        {
          "internalType": "bytes32",
          "name": "_examId",
          "type": "bytes32"
        },
        {
          "internalType": "address",
          "name": "_student",
          "type": "address"
        },
        {
          "internalType": "uint256",
          "name": "_grade",
          "type": "uint256"
        }
      ],
      "name": "assignGrade",
      "outputs": [],
      "stateMutability": "nonpayable",
      "type": "function"
    },
    {
      "inputs": [
        {
          "internalType": "bytes32",
          "name": "_examId",
          "type": "bytes32"
        }
      ],
      "name": "getExamDetails",
      "outputs": [
        {
          "internalType": "address",
          "name": "institution",
          "type": "address"
        },
        {
          "internalType": "string",
          "name": "ipfsHash",
          "type": "string"
        },
        {
          "internalType": "uint256",
          "name": "startTime",
          "type": "uint256"
        },
        {
          "internalType": "uint256",
          "name": "endTime",
          "type": "uint256"
        },
        {
          "internalType": "bool",
          "name": "isActive",
          "type": "bool"
        }
      ],
      "stateMutability": "view",
      "type": "function",
      "constant": true
    },
    {
      "inputs": [
        {
          "internalType": "bytes32",
          "name": "_examId",
          "type": "bytes32"
        },
        {
          "internalType": "address",
          "name": "_student",
          "type": "address"
        }
      ],
      "name": "getStudentGrade",
      "outputs": [
        {
          "internalType": "uint256",
          "name": "grade",
          "type": "uint256"
        },
        {
          "internalType": "bool",
          "name": "isGraded",
          "type": "bool"
        }
      ],
      "stateMutability": "view",
      "type": "function",
      "constant": true
    }
  ],
  "bytecode": "0x608060405234801561001057600080fd5b506040516114a53803806114a583398101604081905261002f91610059565b6001600081905580546001600160a01b0319166001600160a01b0392909216919091179055610089565b60006020828403121561006b57600080fd5b81516001600160a01b038116811461008257600080fd5b9392505050565b61140d806100986000396000f3fe608060405234801561001057600080fd5b506004361061009e5760003560e01c806367031bae1161006657806367031bae1461012c578063675191d7146101575780636e6dbb3f146101b7578063ac99defa146101ca578063add21f73146101dd57600080fd5b80630ea6a25c146100a35780633702ec52146100d05780633aa9bc6a146100f15780633c7de896146101045780635d590dde14610119575b600080fd5b6100b66100b1366004610f7e565b6101f0565b6040516100c7959493929190610fbb565b60405180910390f35b6100e36100de3660046110b6565b6102b6565b6040519081526020016100c7565b6100b66100ff366004610f7e565b610567565b610117610112366004611104565b61064a565b005b6100e3610127366004611167565b610901565b60015461013f906001600160a01b031681565b6040516001600160a01b0390911681526020016100c7565b6101a2610165366004611191565b60008281526002602090815260408083206001600160a01b03851684526007810183528184205460089091019092529091205460ff169250929050565b604080519283529015156020830152016100c7565b6100e36101c5366004611167565b610932565b6101176101d83660046111bd565b61094e565b6101176101eb366004610f7e565b610c72565b600260205260009081526040902080546001820180546001600160a01b03909216929161021c906111f2565b80601f0160208091040260200160405190810160405280929190818152602001828054610248906111f2565b80156102955780601f1061026a57610100808354040283529160200191610295565b820191906000526020600020905b81548152906001019060200180831161027857829003601f168201915b50505050600283015460038401546004909401549293909290915060ff1685565b60006002600154604051632782085160e01b81523360048201526001600160a01b0390911690632782085190602401602060405180830381865afa158015610302573d6000803e3d6000fd5b505050506040513d601f19601f820116820180604052508101906103269190611242565b60038111156103375761033761122c565b1480156103ab5750600154604051633da1c0c360e01b81523360048201526001600160a01b0390911690633da1c0c390602401602060405180830381865afa158015610387573d6000803e3d6000fd5b505050506040513d601f19601f820116820180604052508101906103ab9190611263565b6103fc5760405162461bcd60e51b815260206004820152601a60248201527f4e6f74206120766572696669656420696e737469747574696f6e00000000000060448201526064015b60405180910390fd5b610404610f25565b4283116104485760405162461bcd60e51b8152602060048201526012602482015271496e76616c69642073746172742074696d6560701b60448201526064016103f3565b82821161048a5760405162461bcd60e51b815260206004820152601060248201526f496e76616c696420656e642074696d6560801b60448201526064016103f3565b6000338585856040516020016104a39493929190611285565b60408051601f19818403018152918152815160209283012060008181526002909352912080546001600160a01b03191633178155909150600181016104e88782611317565b5060028101859055600380820185905560048201805460ff1916600190811790915533600081815260209384526040808220805494850181558252938120909201859055915184917f8de4ccace2312e077369c7b809b4c3ca0c5915513249b127e1502af996ee590291a35090506105606001600055565b9392505050565b600081815260026020819052604082208054918101546003820154600483015460018401805460609688968796879691956001600160a01b039093169493909260ff169084906105b6906111f2565b80601f01602080910402602001604051908101604052809291908181526020018280546105e2906111f2565b801561062f5780601f106106045761010080835404028352916020019161062f565b820191906000526020600020905b81548152906001019060200180831161061257829003601f168201915b50505050509350955095509550955095505091939590929450565b60018054604051632782085160e01b81523360048201526001600160a01b0390911690632782085190602401602060405180830381865afa158015610693573d6000803e3d6000fd5b505050506040513d601f19601f820116820180604052508101906106b79190611242565b60038111156106c8576106c861122c565b14801561073c5750600154604051633da1c0c360e01b81523360048201526001600160a01b0390911690633da1c0c390602401602060405180830381865afa158015610718573d6000803e3d6000fd5b505050506040513d601f19601f8201168201806040525081019061073c9190611263565b6107815760405162461bcd60e51b8152602060048201526016602482015275139bdd0818481d995c9a599a5959081cdd1d59195b9d60521b60448201526064016103f3565b610789610f25565b6000828152600260205260409020600481015460ff166107e45760405162461bcd60e51b81526020600482015260166024820152754578616d696e6174696f6e206e6f742061637469766560501b60448201526064016103f3565b33600090815260058201602052604090205460ff166108455760405162461bcd60e51b815260206004820152601760248201527f4e6f74207265676973746572656420666f72206578616d00000000000000000060448201526064016103f3565b8060020154421015801561085d575080600301544211155b6108a95760405162461bcd60e51b815260206004820152601d60248201527f4e6f742077697468696e206578616d696e6174696f6e20706572696f6400000060448201526064016103f3565b33600090815260068201602052604090206108c48382611317565b50604051339084907f13faec3eaa48a862c34c26e12c1f14835de3d1392dd9bde324258d2ce315b85290600090a3506108fd6001600055565b5050565b6004602052816000526040600020818154811061091d57600080fd5b90600052602060002001600091509150505481565b6003602052816000526040600020818154811061091d57600080fd5b600154604051632782085160e01b81523360048201526002916001600160a01b031690632782085190602401602060405180830381865afa158015610997573d6000803e3d6000fd5b505050506040513d601f19601f820116820180604052508101906109bb9190611242565b60038111156109cc576109cc61122c565b148015610a405750600154604051633da1c0c360e01b81523360048201526001600160a01b0390911690633da1c0c390602401602060405180830381865afa158015610a1c573d6000803e3d6000fd5b505050506040513d601f19601f82011682018060405250810190610a409190611263565b610a8c5760405162461bcd60e51b815260206004820152601a60248201527f4e6f74206120766572696669656420696e737469747574696f6e00000000000060448201526064016103f3565b610a94610f25565b600083815260026020526040902080546001600160a01b03163314610afb5760405162461bcd60e51b815260206004820152601760248201527f4e6f74206578616d696e6174696f6e2063726561746f7200000000000000000060448201526064016103f3565b6001600160a01b038316600090815260058201602052604090205460ff16610b5e5760405162461bcd60e51b815260206004820152601660248201527514dd1d59195b9d081b9bdd081c9959da5cdd195c995960521b60448201526064016103f3565b6001600160a01b038316600090815260088201602052604090205460ff1615610bba5760405162461bcd60e51b815260206004820152600e60248201526d105b1c9958591e4819dc9859195960921b60448201526064016103f3565b6064821115610bfb5760405162461bcd60e51b815260206004820152600d60248201526c496e76616c696420677261646560981b60448201526064016103f3565b6001600160a01b0383166000818152600783016020908152604080832086905560088501825291829020805460ff19166001179055905184815286917f019f8d0e86909df9ca28ba9f762269838b7d277a26f66c906072b1af14a5cc84910160405180910390a350610c6d6001600055565b505050565b60018054604051632782085160e01b81523360048201526001600160a01b0390911690632782085190602401602060405180830381865afa158015610cbb573d6000803e3d6000fd5b505050506040513d601f19601f82011682018060405250810190610cdf9190611242565b6003811115610cf057610cf061122c565b148015610d645750600154604051633da1c0c360e01b81523360048201526001600160a01b0390911690633da1c0c390602401602060405180830381865afa158015610d40573d6000803e3d6000fd5b505050506040513d601f19601f82011682018060405250810190610d649190611263565b610da95760405162461bcd60e51b8152602060048201526016602482015275139bdd0818481d995c9a599a5959081cdd1d59195b9d60521b60448201526064016103f3565b610db1610f25565b6000818152600260205260409020600481015460ff16610e0c5760405162461bcd60e51b81526020600482015260166024820152754578616d696e6174696f6e206e6f742061637469766560501b60448201526064016103f3565b80600201544210610e5f5760405162461bcd60e51b815260206004820152601960248201527f526567697374726174696f6e20706572696f6420656e6465640000000000000060448201526064016103f3565b33600090815260058201602052604090205460ff1615610eb65760405162461bcd60e51b8152602060048201526012602482015271105b1c9958591e481c9959da5cdd195c995960721b60448201526064016103f3565b3360008181526005830160209081526040808320805460ff19166001908117909155600483528184208054918201815584529183209091018590555184917f2796cdd476632fa2516bccbeb4e27b8416b98c227dec8db5247870143ee384ca91a350610f226001600055565b50565b600260005403610f775760405162461bcd60e51b815260206004820152601f60248201527f5265656e7472616e637947756172643a207265656e7472616e742063616c6c0060448201526064016103f3565b6002600055565b600060208284031215610f9057600080fd5b5035919050565b60005b83811015610fb2578181015183820152602001610f9a565b50506000910152565b60018060a01b038616815260a06020820152600085518060a0840152610fe88160c0850160208a01610f97565b60408301959095525060608101929092521515608082015260c0601f909201601f1916010192915050565b634e487b7160e01b600052604160045260246000fd5b600082601f83011261103a57600080fd5b813567ffffffffffffffff8082111561105557611055611013565b604051601f8301601f19908116603f0116810190828211818310171561107d5761107d611013565b8160405283815286602085880101111561109657600080fd5b836020870160208301376000602085830101528094505050505092915050565b6000806000606084860312156110cb57600080fd5b833567ffffffffffffffff8111156110e257600080fd5b6110ee86828701611029565b9660208601359650604090950135949350505050565b6000806040838503121561111757600080fd5b82359150602083013567ffffffffffffffff81111561113557600080fd5b61114185828601611029565b9150509250929050565b80356001600160a01b038116811461116257600080fd5b919050565b6000806040838503121561117a57600080fd5b6111838361114b565b946020939093013593505050565b600080604083850312156111a457600080fd5b823591506111b46020840161114b565b90509250929050565b6000806000606084860312156111d257600080fd5b833592506111e26020850161114b565b9150604084013590509250925092565b600181811c9082168061120657607f821691505b60208210810361122657634e487b7160e01b600052602260045260246000fd5b50919050565b634e487b7160e01b600052602160045260246000fd5b60006020828403121561125457600080fd5b81516004811061056057600080fd5b60006020828403121561127557600080fd5b8151801515811461056057600080fd5b6bffffffffffffffffffffffff198560601b168152600084516112af816014850160208901610f97565b909101601481019390935250603482015260540192915050565b601f821115610c6d57600081815260208120601f850160051c810160208610156112f05750805b601f850160051c820191505b8181101561130f578281556001016112fc565b505050505050565b815167ffffffffffffffff81111561133157611331611013565b6113458161133f84546111f2565b846112c9565b602080601f83116001811461137a57600084156113625750858301515b600019600386901b1c1916600185901b17855561130f565b600085815260208120601f198616915b828110156113a95788860151825594840194600190910190840161138a565b50858210156113c75787850151600019600388901b60f8161c191681555b5050505050600190811b0190555056fea26469706673582212207607e7e64b194e03418f2bd36abe41b8684eea3bcd0cc63b5567e5c4bd78093464736f6c63430008140033",
  "immutableReferences": {},
  "source": "// SPDX-License-Identifier: MIT\npragma solidity ^0.8.19;\n\nimport \"@openzeppelin/contracts/security/ReentrancyGuard.sol\";\nimport \"./Identity.sol\";\n\ncontract Examinations is ReentrancyGuard {\n    Identity public identityContract;\n    \n    struct Examination {\n        address institution;\n        string ipfsHash;  // Contains exam details and questions\n        uint256 startTime;\n        uint256 endTime;\n        bool isActive;\n        mapping(address => bool) registeredStudents;\n        mapping(address => string) studentAnswers;  // IPFS hash of student answers\n        mapping(address => uint256) grades;\n        mapping(address => bool) graded;\n    }\n    \n    mapping(bytes32 => Examination) public examinations;\n    mapping(address => bytes32[]) public institutionExams;\n    mapping(address => bytes32[]) public studentExams;\n    \n    event ExaminationCreated(bytes32 indexed examId, address indexed institution);\n    event StudentRegistered(bytes32 indexed examId, address indexed student);\n    event AnswersSubmitted(bytes32 indexed examId, address indexed student);\n    event GradeAssigned(bytes32 indexed examId, address indexed student, uint256 grade);\n    \n    constructor(address _identityContract) {\n        identityContract = Identity(_identityContract);\n    }\n    \n    modifier onlyVerifiedInstitution() {\n        require(\n            identityContract.getUserRole(msg.sender) == Identity.UserRole.INSTITUTION &&\n            identityContract.isVerifiedUser(msg.sender),\n            \"Not a verified institution\"\n        );\n        _;\n    }\n    \n    modifier onlyVerifiedStudent() {\n        require(\n            identityContract.getUserRole(msg.sender) == Identity.UserRole.STUDENT &&\n            identityContract.isVerifiedUser(msg.sender),\n            \"Not a verified student\"\n        );\n        _;\n    }\n    \n    function createExamination(\n        string memory _ipfsHash,\n        uint256 _startTime,\n        uint256 _endTime\n    ) external onlyVerifiedInstitution nonReentrant returns (bytes32) {\n        require(_startTime > block.timestamp, \"Invalid start time\");\n        require(_endTime > _startTime, \"Invalid end time\");\n        \n        bytes32 examId = keccak256(\n            abi.encodePacked(msg.sender, _ipfsHash, _startTime, _endTime)\n        );\n        \n        Examination storage exam = examinations[examId];\n        exam.institution = msg.sender;\n        exam.ipfsHash = _ipfsHash;\n        exam.startTime = _startTime;\n        exam.endTime = _endTime;\n        exam.isActive = true;\n        \n        institutionExams[msg.sender].push(examId);\n        \n        emit ExaminationCreated(examId, msg.sender);\n        \n        return examId;\n    }\n    \n    function registerForExam(bytes32 _examId) external onlyVerifiedStudent nonReentrant {\n        Examination storage exam = examinations[_examId];\n        require(exam.isActive, \"Examination not active\");\n        require(block.timestamp < exam.startTime, \"Registration period ended\");\n        require(!exam.registeredStudents[msg.sender], \"Already registered\");\n        \n        exam.registeredStudents[msg.sender] = true;\n        studentExams[msg.sender].push(_examId);\n        \n        emit StudentRegistered(_examId, msg.sender);\n    }\n    \n    function submitAnswers(\n        bytes32 _examId,\n        string memory _answersIpfsHash\n    ) external onlyVerifiedStudent nonReentrant {\n        Examination storage exam = examinations[_examId];\n        require(exam.isActive, \"Examination not active\");\n        require(exam.registeredStudents[msg.sender], \"Not registered for exam\");\n        require(\n            block.timestamp >= exam.startTime && block.timestamp <= exam.endTime,\n            \"Not within examination period\"\n        );\n        \n        exam.studentAnswers[msg.sender] = _answersIpfsHash;\n        \n        emit AnswersSubmitted(_examId, msg.sender);\n    }\n    \n    function assignGrade(\n        bytes32 _examId,\n        address _student,\n        uint256 _grade\n    ) external onlyVerifiedInstitution nonReentrant {\n        Examination storage exam = examinations[_examId];\n        require(exam.institution == msg.sender, \"Not examination creator\");\n        require(exam.registeredStudents[_student], \"Student not registered\");\n        require(!exam.graded[_student], \"Already graded\");\n        require(_grade <= 100, \"Invalid grade\");\n        \n        exam.grades[_student] = _grade;\n        exam.graded[_student] = true;\n        \n        emit GradeAssigned(_examId, _student, _grade);\n    }\n    \n    function getExamDetails(bytes32 _examId) external view returns (\n        address institution,\n        string memory ipfsHash,\n        uint256 startTime,\n        uint256 endTime,\n        bool isActive\n    ) {\n        Examination storage exam = examinations[_examId];\n        return (\n            exam.institution,\n            exam.ipfsHash,\n            exam.startTime,\n            exam.endTime,\n            exam.isActive\n        );\n    }\n    \n    function getStudentGrade(bytes32 _examId, address _student) external view returns (\n        uint256 grade,\n        bool isGraded\n    ) {\n        Examination storage exam = examinations[_examId];\n        return (exam.grades[_student], exam.graded[_student]);\n    }\n} ",
  "sourcePath": "H:\\projects\\education\\contracts\\Examinations.sol",
  "compiler": {
    "name": "solc",
    "version": "0.8.20+commit.a1b79de6.Emscripten.clang"
  },
  "schemaVersion": "3.4.16",
  "updatedAt": "2025-04-01T20:13:53.359Z",
  "networkType": "ethereum",
  "devdoc": {
    "kind": "dev",
    "methods": {},
    "version": 1
  },
  "userdoc": {
    "kind": "user",
    "methods": {},
    "version": 1
  }
}