{
  "contractName": "ExamManagement",
  "abi": [
    {
      "anonymous": false,
      "inputs": [
        {
          "indexed": true,
          "internalType": "bytes32",
          "name": "certificateId",
          "type": "bytes32"
        },
        {
          "indexed": true,
          "internalType": "address",
          "name": "student",
          "type": "address"
        }
      ],
      "name": "CertificateIssued",
      "type": "event"
    },
    {
      "anonymous": false,
      "inputs": [
        {
          "indexed": true,
          "internalType": "bytes32",
          "name": "examId",
          "type": "bytes32"
        },
        {
          "indexed": false,
          "internalType": "string",
          "name": "title",
          "type": "string"
        }
      ],
      "name": "ExamCreated",
      "type": "event"
    },
    {
      "anonymous": false,
      "inputs": [
        {
          "indexed": true,
          "internalType": "bytes32",
          "name": "examId",
          "type": "bytes32"
        },
        {
          "indexed": false,
          "internalType": "string",
          "name": "status",
          "type": "string"
        }
      ],
      "name": "ExamStatusUpdated",
      "type": "event"
    },
    {
      "anonymous": false,
      "inputs": [
        {
          "indexed": true,
          "internalType": "address",
          "name": "institution",
          "type": "address"
        },
        {
          "indexed": false,
          "internalType": "string",
          "name": "name",
          "type": "string"
        }
      ],
      "name": "InstitutionProfileUpdated",
      "type": "event"
    },
    {
      "anonymous": false,
      "inputs": [
        {
          "indexed": true,
          "internalType": "address",
          "name": "institution",
          "type": "address"
        },
        {
          "indexed": false,
          "internalType": "string",
          "name": "name",
          "type": "string"
        }
      ],
      "name": "InstitutionRegistered",
      "type": "event"
    },
    {
      "anonymous": false,
      "inputs": [
        {
          "indexed": true,
          "internalType": "address",
          "name": "institution",
          "type": "address"
        }
      ],
      "name": "InstitutionVerified",
      "type": "event"
    },
    {
      "anonymous": false,
      "inputs": [
        {
          "indexed": true,
          "internalType": "address",
          "name": "previousOwner",
          "type": "address"
        },
        {
          "indexed": true,
          "internalType": "address",
          "name": "newOwner",
          "type": "address"
        }
      ],
      "name": "OwnershipTransferred",
      "type": "event"
    },
    {
      "anonymous": false,
      "inputs": [
        {
          "indexed": false,
          "internalType": "address",
          "name": "account",
          "type": "address"
        }
      ],
      "name": "Paused",
      "type": "event"
    },
    {
      "anonymous": false,
      "inputs": [
        {
          "indexed": true,
          "internalType": "bytes32",
          "name": "examId",
          "type": "bytes32"
        },
        {
          "indexed": true,
          "internalType": "address",
          "name": "student",
          "type": "address"
        }
      ],
      "name": "ResultSubmitted",
      "type": "event"
    },
    {
      "anonymous": false,
      "inputs": [
        {
          "indexed": true,
          "internalType": "address",
          "name": "institution",
          "type": "address"
        },
        {
          "indexed": true,
          "internalType": "address",
          "name": "student",
          "type": "address"
        }
      ],
      "name": "StudentAdded",
      "type": "event"
    },
    {
      "anonymous": false,
      "inputs": [
        {
          "indexed": true,
          "internalType": "address",
          "name": "student",
          "type": "address"
        },
        {
          "indexed": false,
          "internalType": "string",
          "name": "status",
          "type": "string"
        }
      ],
      "name": "StudentStatusUpdated",
      "type": "event"
    },
    {
      "anonymous": false,
      "inputs": [
        {
          "indexed": true,
          "internalType": "bytes32",
          "name": "examId",
          "type": "bytes32"
        },
        {
          "indexed": false,
          "internalType": "address[]",
          "name": "students",
          "type": "address[]"
        }
      ],
      "name": "StudentsRegistered",
      "type": "event"
    },
    {
      "anonymous": false,
      "inputs": [
        {
          "indexed": false,
          "internalType": "address",
          "name": "account",
          "type": "address"
        }
      ],
      "name": "Unpaused",
      "type": "event"
    },
    {
      "inputs": [
        {
          "internalType": "bytes32",
          "name": "",
          "type": "bytes32"
        }
      ],
      "name": "certificates",
      "outputs": [
        {
          "internalType": "address",
          "name": "student",
          "type": "address"
        },
        {
          "internalType": "address",
          "name": "issuer",
          "type": "address"
        },
        {
          "internalType": "string",
          "name": "ipfsHash",
          "type": "string"
        },
        {
          "internalType": "uint256",
          "name": "issuedAt",
          "type": "uint256"
        },
        {
          "internalType": "bool",
          "name": "exists",
          "type": "bool"
        }
      ],
      "stateMutability": "view",
      "type": "function",
      "constant": true
    },
    {
      "inputs": [
        {
          "internalType": "bytes32",
          "name": "",
          "type": "bytes32"
        },
        {
          "internalType": "address",
          "name": "",
          "type": "address"
        }
      ],
      "name": "examResults",
      "outputs": [
        {
          "internalType": "uint256",
          "name": "score",
          "type": "uint256"
        },
        {
          "internalType": "string",
          "name": "grade",
          "type": "string"
        },
        {
          "internalType": "string",
          "name": "notes",
          "type": "string"
        },
        {
          "internalType": "bool",
          "name": "exists",
          "type": "bool"
        }
      ],
      "stateMutability": "view",
      "type": "function",
      "constant": true
    },
    {
      "inputs": [
        {
          "internalType": "bytes32",
          "name": "",
          "type": "bytes32"
        }
      ],
      "name": "exams",
      "outputs": [
        {
          "internalType": "string",
          "name": "title",
          "type": "string"
        },
        {
          "internalType": "string",
          "name": "description",
          "type": "string"
        },
        {
          "internalType": "uint256",
          "name": "date",
          "type": "uint256"
        },
        {
          "internalType": "uint256",
          "name": "duration",
          "type": "uint256"
        },
        {
          "internalType": "string",
          "name": "status",
          "type": "string"
        },
        {
          "internalType": "string",
          "name": "ipfsHash",
          "type": "string"
        },
        {
          "internalType": "bool",
          "name": "exists",
          "type": "bool"
        }
      ],
      "stateMutability": "view",
      "type": "function",
      "constant": true
    },
    {
      "inputs": [
        {
          "internalType": "address",
          "name": "",
          "type": "address"
        },
        {
          "internalType": "address",
          "name": "",
          "type": "address"
        }
      ],
      "name": "institutionStudents",
      "outputs": [
        {
          "internalType": "bool",
          "name": "",
          "type": "bool"
        }
      ],
      "stateMutability": "view",
      "type": "function",
      "constant": true
    },
    {
      "inputs": [
        {
          "internalType": "address",
          "name": "",
          "type": "address"
        }
      ],
      "name": "institutions",
      "outputs": [
        {
          "internalType": "string",
          "name": "name",
          "type": "string"
        },
        {
          "internalType": "string",
          "name": "description",
          "type": "string"
        },
        {
          "internalType": "string",
          "name": "physicalAddress",
          "type": "string"
        },
        {
          "internalType": "string",
          "name": "email",
          "type": "string"
        },
        {
          "internalType": "string",
          "name": "phone",
          "type": "string"
        },
        {
          "internalType": "string",
          "name": "website",
          "type": "string"
        },
        {
          "internalType": "string",
          "name": "logo",
          "type": "string"
        },
        {
          "internalType": "string",
          "name": "ministry",
          "type": "string"
        },
        {
          "internalType": "string",
          "name": "university",
          "type": "string"
        },
        {
          "internalType": "string",
          "name": "college",
          "type": "string"
        },
        {
          "internalType": "bool",
          "name": "isVerified",
          "type": "bool"
        },
        {
          "internalType": "bool",
          "name": "exists",
          "type": "bool"
        }
      ],
      "stateMutability": "view",
      "type": "function",
      "constant": true
    },
    {
      "inputs": [],
      "name": "owner",
      "outputs": [
        {
          "internalType": "address",
          "name": "",
          "type": "address"
        }
      ],
      "stateMutability": "view",
      "type": "function",
      "constant": true
    },
    {
      "inputs": [],
      "name": "paused",
      "outputs": [
        {
          "internalType": "bool",
          "name": "",
          "type": "bool"
        }
      ],
      "stateMutability": "view",
      "type": "function",
      "constant": true
    },
    {
      "inputs": [],
      "name": "renounceOwnership",
      "outputs": [],
      "stateMutability": "nonpayable",
      "type": "function"
    },
    {
      "inputs": [
        {
          "internalType": "address",
          "name": "",
          "type": "address"
        }
      ],
      "name": "students",
      "outputs": [
        {
          "internalType": "string",
          "name": "name",
          "type": "string"
        },
        {
          "internalType": "string",
          "name": "email",
          "type": "string"
        },
        {
          "internalType": "uint256",
          "name": "enrollmentDate",
          "type": "uint256"
        },
        {
          "internalType": "string",
          "name": "status",
          "type": "string"
        },
        {
          "internalType": "bool",
          "name": "exists",
          "type": "bool"
        }
      ],
      "stateMutability": "view",
      "type": "function",
      "constant": true
    },
    {
      "inputs": [
        {
          "internalType": "address",
          "name": "newOwner",
          "type": "address"
        }
      ],
      "name": "transferOwnership",
      "outputs": [],
      "stateMutability": "nonpayable",
      "type": "function"
    },
    {
      "inputs": [
        {
          "internalType": "string",
          "name": "name",
          "type": "string"
        },
        {
          "internalType": "string",
          "name": "description",
          "type": "string"
        },
        {
          "internalType": "string",
          "name": "physicalAddress",
          "type": "string"
        },
        {
          "internalType": "string",
          "name": "email",
          "type": "string"
        },
        {
          "internalType": "string",
          "name": "phone",
          "type": "string"
        },
        {
          "internalType": "string",
          "name": "website",
          "type": "string"
        },
        {
          "internalType": "string",
          "name": "logo",
          "type": "string"
        },
        {
          "internalType": "string",
          "name": "ministry",
          "type": "string"
        },
        {
          "internalType": "string",
          "name": "university",
          "type": "string"
        },
        {
          "internalType": "string",
          "name": "college",
          "type": "string"
        }
      ],
      "name": "registerInstitution",
      "outputs": [],
      "stateMutability": "nonpayable",
      "type": "function"
    },
    {
      "inputs": [
        {
          "internalType": "address",
          "name": "institution",
          "type": "address"
        }
      ],
      "name": "verifyInstitution",
      "outputs": [],
      "stateMutability": "nonpayable",
      "type": "function"
    },
    {
      "inputs": [
        {
          "internalType": "string",
          "name": "name",
          "type": "string"
        },
        {
          "internalType": "string",
          "name": "ministry",
          "type": "string"
        },
        {
          "internalType": "string",
          "name": "university",
          "type": "string"
        },
        {
          "internalType": "string",
          "name": "college",
          "type": "string"
        },
        {
          "internalType": "string",
          "name": "description",
          "type": "string"
        },
        {
          "internalType": "string",
          "name": "logo",
          "type": "string"
        },
        {
          "internalType": "string",
          "name": "website",
          "type": "string"
        },
        {
          "internalType": "string",
          "name": "email",
          "type": "string"
        },
        {
          "internalType": "string",
          "name": "phone",
          "type": "string"
        }
      ],
      "name": "updateInstitutionProfile",
      "outputs": [],
      "stateMutability": "nonpayable",
      "type": "function"
    },
    {
      "inputs": [
        {
          "internalType": "address",
          "name": "studentAddress",
          "type": "address"
        },
        {
          "internalType": "string",
          "name": "name",
          "type": "string"
        },
        {
          "internalType": "string",
          "name": "email",
          "type": "string"
        }
      ],
      "name": "addStudent",
      "outputs": [],
      "stateMutability": "nonpayable",
      "type": "function"
    },
    {
      "inputs": [
        {
          "internalType": "address",
          "name": "studentAddress",
          "type": "address"
        },
        {
          "internalType": "string",
          "name": "newStatus",
          "type": "string"
        }
      ],
      "name": "updateStudentStatus",
      "outputs": [],
      "stateMutability": "nonpayable",
      "type": "function"
    },
    {
      "inputs": [
        {
          "internalType": "string",
          "name": "title",
          "type": "string"
        },
        {
          "internalType": "string",
          "name": "description",
          "type": "string"
        },
        {
          "internalType": "uint256",
          "name": "date",
          "type": "uint256"
        },
        {
          "internalType": "uint256",
          "name": "duration",
          "type": "uint256"
        },
        {
          "internalType": "string",
          "name": "ipfsHash",
          "type": "string"
        }
      ],
      "name": "createExam",
      "outputs": [
        {
          "internalType": "bytes32",
          "name": "",
          "type": "bytes32"
        }
      ],
      "stateMutability": "nonpayable",
      "type": "function"
    },
    {
      "inputs": [
        {
          "internalType": "bytes32",
          "name": "examId",
          "type": "bytes32"
        },
        {
          "internalType": "string",
          "name": "newStatus",
          "type": "string"
        }
      ],
      "name": "updateExamStatus",
      "outputs": [],
      "stateMutability": "nonpayable",
      "type": "function"
    },
    {
      "inputs": [
        {
          "internalType": "bytes32",
          "name": "examId",
          "type": "bytes32"
        },
        {
          "internalType": "address[]",
          "name": "studentAddresses",
          "type": "address[]"
        }
      ],
      "name": "registerStudentsForExam",
      "outputs": [],
      "stateMutability": "nonpayable",
      "type": "function"
    },
    {
      "inputs": [
        {
          "internalType": "bytes32",
          "name": "examId",
          "type": "bytes32"
        },
        {
          "internalType": "address",
          "name": "student",
          "type": "address"
        },
        {
          "internalType": "uint256",
          "name": "score",
          "type": "uint256"
        },
        {
          "internalType": "string",
          "name": "grade",
          "type": "string"
        },
        {
          "internalType": "string",
          "name": "notes",
          "type": "string"
        }
      ],
      "name": "submitResult",
      "outputs": [],
      "stateMutability": "nonpayable",
      "type": "function"
    },
    {
      "inputs": [
        {
          "internalType": "address",
          "name": "student",
          "type": "address"
        },
        {
          "internalType": "string",
          "name": "ipfsHash",
          "type": "string"
        }
      ],
      "name": "issueCertificate",
      "outputs": [],
      "stateMutability": "nonpayable",
      "type": "function"
    },
    {
      "inputs": [
        {
          "internalType": "address",
          "name": "institution",
          "type": "address"
        }
      ],
      "name": "getInstitution",
      "outputs": [
        {
          "internalType": "string",
          "name": "name",
          "type": "string"
        },
        {
          "internalType": "string",
          "name": "description",
          "type": "string"
        },
        {
          "internalType": "string",
          "name": "physicalAddress",
          "type": "string"
        },
        {
          "internalType": "string",
          "name": "email",
          "type": "string"
        },
        {
          "internalType": "string",
          "name": "phone",
          "type": "string"
        },
        {
          "internalType": "string",
          "name": "website",
          "type": "string"
        },
        {
          "internalType": "string",
          "name": "logo",
          "type": "string"
        },
        {
          "internalType": "string",
          "name": "ministry",
          "type": "string"
        },
        {
          "internalType": "string",
          "name": "university",
          "type": "string"
        },
        {
          "internalType": "string",
          "name": "college",
          "type": "string"
        },
        {
          "internalType": "bool",
          "name": "isVerified",
          "type": "bool"
        }
      ],
      "stateMutability": "view",
      "type": "function",
      "constant": true
    },
    {
      "inputs": [
        {
          "internalType": "address",
          "name": "student",
          "type": "address"
        }
      ],
      "name": "getStudent",
      "outputs": [
        {
          "internalType": "string",
          "name": "name",
          "type": "string"
        },
        {
          "internalType": "string",
          "name": "email",
          "type": "string"
        },
        {
          "internalType": "uint256",
          "name": "enrollmentDate",
          "type": "uint256"
        },
        {
          "internalType": "string",
          "name": "status",
          "type": "string"
        }
      ],
      "stateMutability": "view",
      "type": "function",
      "constant": true
    },
    {
      "inputs": [
        {
          "internalType": "bytes32",
          "name": "examId",
          "type": "bytes32"
        },
        {
          "internalType": "address",
          "name": "student",
          "type": "address"
        }
      ],
      "name": "getExamResult",
      "outputs": [
        {
          "internalType": "uint256",
          "name": "score",
          "type": "uint256"
        },
        {
          "internalType": "string",
          "name": "grade",
          "type": "string"
        },
        {
          "internalType": "string",
          "name": "notes",
          "type": "string"
        }
      ],
      "stateMutability": "view",
      "type": "function",
      "constant": true
    },
    {
      "inputs": [
        {
          "internalType": "bytes32",
          "name": "examId",
          "type": "bytes32"
        }
      ],
      "name": "getExamStatistics",
      "outputs": [
        {
          "internalType": "uint256",
          "name": "totalStudents",
          "type": "uint256"
        },
        {
          "internalType": "uint256",
          "name": "passRate",
          "type": "uint256"
        },
        {
          "internalType": "uint256",
          "name": "averageScore",
          "type": "uint256"
        }
      ],
      "stateMutability": "view",
      "type": "function",
      "constant": true
    }
  ],
  "bytecode": "0x60806040523480156200001157600080fd5b506200001d3362000030565b6000805460ff60a01b1916905562000080565b600080546001600160a01b038381166001600160a01b0319831681178455604051919092169283917f8be0079c531659141344cd1fd0a4f28419497f9722a3daafe3b4186f6b6457e09190a35050565b613f9280620000906000396000f3fe608060405234801561001057600080fd5b50600436106101585760003560e01c8063b2d9767f116100c3578063db1830221161007c578063db18302214610346578063dd6aa93c14610359578063f2fde38b14610387578063f87b8b0c1461039a578063fb3548d0146103c8578063fec4b036146103ea57600080fd5b8063b2d9767f146102ac578063b532363b146102d7578063b6c11da8146102ea578063bb721aab146102fd578063c0a9062a14610310578063cb28b17d1461032357600080fd5b8063711992361161011557806371199236146101f1578063715018a61461021b578063742f0688146102235780638da5cb5b1461024757806399341a8a14610262578063a6c807a91461028857600080fd5b8063181862a01461015d57806321a829c6146101725780633e168516146101855780635c975abb146101985780636155cce8146101bb5780636b7b44d7146101ce575b600080fd5b61017061016b3660046131f8565b61040b565b005b610170610180366004613379565b61052b565b6101706101933660046133ed565b610707565b600054600160a01b900460ff165b60405190151581526020015b60405180910390f35b6101706101c936600461340f565b6107a1565b6101e16101dc3660046133ed565b61091f565b6040516101b294939291906134a3565b6102046101ff3660046133ed565b610b4a565b6040516101b29b9a999897969594939291906134ed565b6101706111d9565b6102366102313660046135d9565b6111ed565b6040516101b29594939291906135f2565b6000546040516001600160a01b0390911681526020016101b2565b6102756102703660046135d9565b6112b5565b6040516101b29796959493929190613637565b61029b6102963660046133ed565b611512565b6040516101b29594939291906136a7565b6102bf6102ba3660046133ed565b6116db565b6040516101b29c9b9a999897969594939291906136fb565b6101706102e53660046137f0565b611c89565b6101706102f836600461397b565b611e91565b61017061030b36600461340f565b61203a565b61017061031e366004613a03565b612295565b610336610331366004613a34565b61237e565b6040516101b29493929190613a60565b610170610354366004613a9f565b6124c5565b6101a6610367366004613b58565b600360209081526000928352604080842090915290825290205460ff1681565b6101706103953660046133ed565b61268d565b6103ad6103a83660046135d9565b612706565b604080519384526020840192909252908201526060016101b2565b6103db6103d6366004613a34565b612c49565b6040516101b293929190613b82565b6103fd6103f8366004613bb7565b612dd5565b6040519081526020016101b2565b336000908152600160205260409020600a0154610100900460ff1661044b5760405162461bcd60e51b815260040161044290613c39565b60405180910390fd5b336000908152600160205260409020806104658b82613cf9565b50600781016104748a82613cf9565b50600881016104838982613cf9565b50600981016104928882613cf9565b50600181016104a18782613cf9565b50600681016104b08682613cf9565b50600581016104bf8582613cf9565b50600381016104ce8482613cf9565b50600481016104dd8382613cf9565b50336001600160a01b03167f655d9a02ca12cc7569076641886b1626a4dda688c79db17d717c86aad58e60748b6040516105179190613db9565b60405180910390a250505050505050505050565b336000908152600160205260409020600a0154610100900460ff166105625760405162461bcd60e51b815260040161044290613c39565b336000908152600160205260409020600a015460ff166105945760405162461bcd60e51b815260040161044290613dcc565b6001600160a01b03831660009081526002602052604090206004015460ff16156105f95760405162461bcd60e51b815260206004820152601660248201527553747564656e7420616c72656164792065786973747360501b6044820152606401610442565b6040805160a0810182528381526020808201849052428284015282518084018452600681526561637469766560d01b818301526060830152600160808301526001600160a01b03861660009081526002909152919091208151819061065e9082613cf9565b50602082015160018201906106739082613cf9565b5060408201516002820155606082015160038201906106929082613cf9565b50608091909101516004909101805491151560ff199283161790553360008181526003602090815260408083206001600160a01b0389168085529252808320805490951660011790945592517fc93a03c6c4e1438e4120d83d473f9028b8bb1947b3d183cafd9519473754e34c9190a3505050565b61070f61301d565b6001600160a01b0381166000908152600160205260409020600a0154610100900460ff1661074f5760405162461bcd60e51b815260040161044290613c39565b6001600160a01b0381166000818152600160208190526040808320600a01805460ff1916909217909155517f59eb63526c88dac6c2e738ca3b5d5511d9955629a0f9d61ff80c1abc63d1cfb19190a250565b336000908152600160205260409020600a0154610100900460ff166107d85760405162461bcd60e51b815260040161044290613c39565b336000908152600160205260409020600a015460ff1661080a5760405162461bcd60e51b815260040161044290613dcc565b6001600160a01b038216600090815260026020526040902060040154829060ff166108705760405162461bcd60e51b815260206004820152601660248201527514dd1d59195b9d08191bd95cc81b9bdd08195e1a5cdd60521b6044820152606401610442565b3360009081526003602090815260408083206001600160a01b038716845290915290205460ff166108b35760405162461bcd60e51b815260040161044290613e03565b6001600160a01b03831660009081526002602052604090206003016108d88382613cf9565b50826001600160a01b03167f08c864cdb2074c7e172f9f881a919f5b24830abcfd1290e79d656504627177b4836040516109129190613db9565b60405180910390a2505050565b60608060006060600060026000876001600160a01b03166001600160a01b031681526020019081526020016000206040518060a001604052908160008201805461096890613c70565b80601f016020809104026020016040519081016040528092919081815260200182805461099490613c70565b80156109e15780601f106109b6576101008083540402835291602001916109e1565b820191906000526020600020905b8154815290600101906020018083116109c457829003601f168201915b505050505081526020016001820180546109fa90613c70565b80601f0160208091040260200160405190810160405280929190818152602001828054610a2690613c70565b8015610a735780601f10610a4857610100808354040283529160200191610a73565b820191906000526020600020905b815481529060010190602001808311610a5657829003601f168201915b5050505050815260200160028201548152602001600382018054610a9690613c70565b80601f0160208091040260200160405190810160405280929190818152602001828054610ac290613c70565b8015610b0f5780601f10610ae457610100808354040283529160200191610b0f565b820191906000526020600020905b815481529060010190602001808311610af257829003601f168201915b50505091835250506004919091015460ff16151560209182015281519082015160408301516060909301519199909850919650945092505050565b606080606080606080606080606080600080600160008e6001600160a01b03166001600160a01b0316815260200190815260200160002060405180610180016040529081600082018054610b9d90613c70565b80601f0160208091040260200160405190810160405280929190818152602001828054610bc990613c70565b8015610c165780601f10610beb57610100808354040283529160200191610c16565b820191906000526020600020905b815481529060010190602001808311610bf957829003601f168201915b50505050508152602001600182018054610c2f90613c70565b80601f0160208091040260200160405190810160405280929190818152602001828054610c5b90613c70565b8015610ca85780601f10610c7d57610100808354040283529160200191610ca8565b820191906000526020600020905b815481529060010190602001808311610c8b57829003601f168201915b50505050508152602001600282018054610cc190613c70565b80601f0160208091040260200160405190810160405280929190818152602001828054610ced90613c70565b8015610d3a5780601f10610d0f57610100808354040283529160200191610d3a565b820191906000526020600020905b815481529060010190602001808311610d1d57829003601f168201915b50505050508152602001600382018054610d5390613c70565b80601f0160208091040260200160405190810160405280929190818152602001828054610d7f90613c70565b8015610dcc5780601f10610da157610100808354040283529160200191610dcc565b820191906000526020600020905b815481529060010190602001808311610daf57829003601f168201915b50505050508152602001600482018054610de590613c70565b80601f0160208091040260200160405190810160405280929190818152602001828054610e1190613c70565b8015610e5e5780601f10610e3357610100808354040283529160200191610e5e565b820191906000526020600020905b815481529060010190602001808311610e4157829003601f168201915b50505050508152602001600582018054610e7790613c70565b80601f0160208091040260200160405190810160405280929190818152602001828054610ea390613c70565b8015610ef05780601f10610ec557610100808354040283529160200191610ef0565b820191906000526020600020905b815481529060010190602001808311610ed357829003601f168201915b50505050508152602001600682018054610f0990613c70565b80601f0160208091040260200160405190810160405280929190818152602001828054610f3590613c70565b8015610f825780601f10610f5757610100808354040283529160200191610f82565b820191906000526020600020905b815481529060010190602001808311610f6557829003601f168201915b50505050508152602001600782018054610f9b90613c70565b80601f0160208091040260200160405190810160405280929190818152602001828054610fc790613c70565b80156110145780601f10610fe957610100808354040283529160200191611014565b820191906000526020600020905b815481529060010190602001808311610ff757829003601f168201915b5050505050815260200160088201805461102d90613c70565b80601f016020809104026020016040519081016040528092919081815260200182805461105990613c70565b80156110a65780601f1061107b576101008083540402835291602001916110a6565b820191906000526020600020905b81548152906001019060200180831161108957829003601f168201915b505050505081526020016009820180546110bf90613c70565b80601f01602080910402602001604051908101604052809291908181526020018280546110eb90613c70565b80156111385780601f1061110d57610100808354040283529160200191611138565b820191906000526020600020905b81548152906001019060200180831161111b57829003601f168201915b50505050508152602001600a820160009054906101000a900460ff16151515158152602001600a820160019054906101000a900460ff1615151515815250509050806000015181602001518260400151836060015184608001518560a001518660c001518760e001518861010001518961012001518a61014001519b509b509b509b509b509b509b509b509b509b509b505091939597999b90929496989a50565b6111e161301d565b6111eb6000613077565b565b6006602052600090815260409020805460018201546002830180546001600160a01b0393841694929093169261122290613c70565b80601f016020809104026020016040519081016040528092919081815260200182805461124e90613c70565b801561129b5780601f106112705761010080835404028352916020019161129b565b820191906000526020600020905b81548152906001019060200180831161127e57829003601f168201915b50505050600383015460049093015491929160ff16905085565b6004602052600090815260409020805481906112d090613c70565b80601f01602080910402602001604051908101604052809291908181526020018280546112fc90613c70565b80156113495780601f1061131e57610100808354040283529160200191611349565b820191906000526020600020905b81548152906001019060200180831161132c57829003601f168201915b50505050509080600101805461135e90613c70565b80601f016020809104026020016040519081016040528092919081815260200182805461138a90613c70565b80156113d75780601f106113ac576101008083540402835291602001916113d7565b820191906000526020600020905b8154815290600101906020018083116113ba57829003601f168201915b5050505050908060020154908060030154908060040180546113f890613c70565b80601f016020809104026020016040519081016040528092919081815260200182805461142490613c70565b80156114715780601f1061144657610100808354040283529160200191611471565b820191906000526020600020905b81548152906001019060200180831161145457829003601f168201915b50505050509080600501805461148690613c70565b80601f01602080910402602001604051908101604052809291908181526020018280546114b290613c70565b80156114ff5780601f106114d4576101008083540402835291602001916114ff565b820191906000526020600020905b8154815290600101906020018083116114e257829003601f168201915b5050506007909301549192505060ff1687565b60026020526000908152604090208054819061152d90613c70565b80601f016020809104026020016040519081016040528092919081815260200182805461155990613c70565b80156115a65780601f1061157b576101008083540402835291602001916115a6565b820191906000526020600020905b81548152906001019060200180831161158957829003601f168201915b5050505050908060010180546115bb90613c70565b80601f01602080910402602001604051908101604052809291908181526020018280546115e790613c70565b80156116345780601f1061160957610100808354040283529160200191611634565b820191906000526020600020905b81548152906001019060200180831161161757829003601f168201915b50505050509080600201549080600301805461164f90613c70565b80601f016020809104026020016040519081016040528092919081815260200182805461167b90613c70565b80156116c85780601f1061169d576101008083540402835291602001916116c8565b820191906000526020600020905b8154815290600101906020018083116116ab57829003601f168201915b5050506004909301549192505060ff1685565b6001602052600090815260409020805481906116f690613c70565b80601f016020809104026020016040519081016040528092919081815260200182805461172290613c70565b801561176f5780601f106117445761010080835404028352916020019161176f565b820191906000526020600020905b81548152906001019060200180831161175257829003601f168201915b50505050509080600101805461178490613c70565b80601f01602080910402602001604051908101604052809291908181526020018280546117b090613c70565b80156117fd5780601f106117d2576101008083540402835291602001916117fd565b820191906000526020600020905b8154815290600101906020018083116117e057829003601f168201915b50505050509080600201805461181290613c70565b80601f016020809104026020016040519081016040528092919081815260200182805461183e90613c70565b801561188b5780601f106118605761010080835404028352916020019161188b565b820191906000526020600020905b81548152906001019060200180831161186e57829003601f168201915b5050505050908060030180546118a090613c70565b80601f01602080910402602001604051908101604052809291908181526020018280546118cc90613c70565b80156119195780601f106118ee57610100808354040283529160200191611919565b820191906000526020600020905b8154815290600101906020018083116118fc57829003601f168201915b50505050509080600401805461192e90613c70565b80601f016020809104026020016040519081016040528092919081815260200182805461195a90613c70565b80156119a75780601f1061197c576101008083540402835291602001916119a7565b820191906000526020600020905b81548152906001019060200180831161198a57829003601f168201915b5050505050908060050180546119bc90613c70565b80601f01602080910402602001604051908101604052809291908181526020018280546119e890613c70565b8015611a355780601f10611a0a57610100808354040283529160200191611a35565b820191906000526020600020905b815481529060010190602001808311611a1857829003601f168201915b505050505090806006018054611a4a90613c70565b80601f0160208091040260200160405190810160405280929190818152602001828054611a7690613c70565b8015611ac35780601f10611a9857610100808354040283529160200191611ac3565b820191906000526020600020905b815481529060010190602001808311611aa657829003601f168201915b505050505090806007018054611ad890613c70565b80601f0160208091040260200160405190810160405280929190818152602001828054611b0490613c70565b8015611b515780601f10611b2657610100808354040283529160200191611b51565b820191906000526020600020905b815481529060010190602001808311611b3457829003601f168201915b505050505090806008018054611b6690613c70565b80601f0160208091040260200160405190810160405280929190818152602001828054611b9290613c70565b8015611bdf5780601f10611bb457610100808354040283529160200191611bdf565b820191906000526020600020905b815481529060010190602001808311611bc257829003601f168201915b505050505090806009018054611bf490613c70565b80601f0160208091040260200160405190810160405280929190818152602001828054611c2090613c70565b8015611c6d5780601f10611c4257610100808354040283529160200191611c6d565b820191906000526020600020905b815481529060010190602001808311611c5057829003601f168201915b505050600a909301549192505060ff808216916101009004168c565b336000908152600160205260409020600a0154610100900460ff1615611cf15760405162461bcd60e51b815260206004820152601e60248201527f496e737469747574696f6e20616c7265616479207265676973746572656400006044820152606401610442565b60408051610180810182528b815260208082018c90528183018b9052606082018a90526080820189905260a0820188905260c0820187905260e082018690526101008201859052610120820184905260006101408301819052600161016084018190523382529091529190912081518190611d6c9082613cf9565b5060208201516001820190611d819082613cf9565b5060408201516002820190611d969082613cf9565b5060608201516003820190611dab9082613cf9565b5060808201516004820190611dc09082613cf9565b5060a08201516005820190611dd59082613cf9565b5060c08201516006820190611dea9082613cf9565b5060e08201516007820190611dff9082613cf9565b506101008201516008820190611e159082613cf9565b506101208201516009820190611e2b9082613cf9565b50610140820151600a90910180546101609093015115156101000261ff00199215159290921661ffff199093169290921717905560405133907f73a52c071d4a02996481449bf1ad04d8f24559a7ec51210c4ec5e43d3baee88190610517908d90613db9565b336000908152600160205260409020600a0154610100900460ff16611ec85760405162461bcd60e51b815260040161044290613c39565b336000908152600160205260409020600a015460ff16611efa5760405162461bcd60e51b815260040161044290613dcc565b600085815260046020526040902060070154859060ff16611f2d5760405162461bcd60e51b815260040161044290613e4b565b3360009081526003602090815260408083206001600160a01b038916845290915290205460ff16611f705760405162461bcd60e51b815260040161044290613e03565b60408051608081018252858152602080820186815282840186905260016060840181905260008b8152600584528581206001600160a01b038c168252909352939091208251815590519192909190820190611fcb9082613cf9565b5060408201516002820190611fe09082613cf9565b50606091909101516003909101805460ff19169115159190911790556040516001600160a01b0386169087907ff97d37817a3016d675a5cf7d2f08c621bf2ace42e26029a856fefb5b538ef2f890600090a3505050505050565b336000908152600160205260409020600a0154610100900460ff166120715760405162461bcd60e51b815260040161044290613c39565b336000908152600160205260409020600a015460ff166120a35760405162461bcd60e51b815260040161044290613dcc565b6001600160a01b038216600090815260026020526040902060040154829060ff166121095760405162461bcd60e51b815260206004820152601660248201527514dd1d59195b9d08191bd95cc81b9bdd08195e1a5cdd60521b6044820152606401610442565b3360009081526003602090815260408083206001600160a01b038716845290915290205460ff1661214c5760405162461bcd60e51b815260040161044290613e03565b61215a600880546001019055565b600061216560085490565b33856040516020016121a093929190928352606091821b6bffffffffffffffffffffffff199081166020850152911b16603482015260480190565b60408051601f19818403018152828252805160209182012060a0840183526001600160a01b038089168552338584019081528585018981524260608801526001608088018190526000858152600690965295909420865181549084166001600160a01b0319918216178255915195810180549690931695909116949094179055905190935060028201906122349082613cf9565b50606082015160038201556080909101516004909101805460ff19169115159190911790556040516001600160a01b0385169082907f11fb9f283c08b0122fe14bf3b5692d38f07282003f545f4bbc8b766ddcbda83290600090a350505050565b336000908152600160205260409020600a0154610100900460ff166122cc5760405162461bcd60e51b815260040161044290613c39565b336000908152600160205260409020600a015460ff166122fe5760405162461bcd60e51b815260040161044290613dcc565b600082815260046020526040902060070154829060ff166123315760405162461bcd60e51b815260040161044290613e4b565b60008381526004602081905260409091200161234d8382613cf9565b50827ff992fe1bd266a3995a256e5cc687b256f18fc830ade96b248360ef2fe29a4c4c836040516109129190613db9565b6005602090815260009283526040808420909152908252902080546001820180549192916123ab90613c70565b80601f01602080910402602001604051908101604052809291908181526020018280546123d790613c70565b80156124245780601f106123f957610100808354040283529160200191612424565b820191906000526020600020905b81548152906001019060200180831161240757829003601f168201915b50505050509080600201805461243990613c70565b80601f016020809104026020016040519081016040528092919081815260200182805461246590613c70565b80156124b25780601f10612487576101008083540402835291602001916124b2565b820191906000526020600020905b81548152906001019060200180831161249557829003601f168201915b5050506003909301549192505060ff1684565b336000908152600160205260409020600a0154610100900460ff166124fc5760405162461bcd60e51b815260040161044290613c39565b336000908152600160205260409020600a015460ff1661252e5760405162461bcd60e51b815260040161044290613dcc565b600082815260046020526040902060070154829060ff166125615760405162461bcd60e51b815260040161044290613e4b565b60005b825181101561263657336000908152600360205260408120845190919085908490811061259357612593613e78565b6020908102919091018101516001600160a01b031682528101919091526040016000205460ff166126245760405162461bcd60e51b815260206004820152603560248201527f4f6e65206f72206d6f72652073747564656e7473206e6f7420656e726f6c6c65604482015274321034b7103a3434b99034b739ba34ba3aba34b7b760591b6064820152608401610442565b8061262e81613ea4565b915050612564565b506000838152600460209081526040909120835161265c926006909201918501906130c7565b50827f70b162532c2b8935bbf6a4aa9c3d8f91fe22c1aa0c8e5d3d34264e9b7570e0c5836040516109129190613ebd565b61269561301d565b6001600160a01b0381166126fa5760405162461bcd60e51b815260206004820152602660248201527f4f776e61626c653a206e6577206f776e657220697320746865207a65726f206160448201526564647265737360d01b6064820152608401610442565b61270381613077565b50565b6000818152600460205260408082208151610100810190925280548392839283928290829061273490613c70565b80601f016020809104026020016040519081016040528092919081815260200182805461276090613c70565b80156127ad5780601f10612782576101008083540402835291602001916127ad565b820191906000526020600020905b81548152906001019060200180831161279057829003601f168201915b505050505081526020016001820180546127c690613c70565b80601f01602080910402602001604051908101604052809291908181526020018280546127f290613c70565b801561283f5780601f106128145761010080835404028352916020019161283f565b820191906000526020600020905b81548152906001019060200180831161282257829003601f168201915b50505050508152602001600282015481526020016003820154815260200160048201805461286c90613c70565b80601f016020809104026020016040519081016040528092919081815260200182805461289890613c70565b80156128e55780601f106128ba576101008083540402835291602001916128e5565b820191906000526020600020905b8154815290600101906020018083116128c857829003601f168201915b505050505081526020016005820180546128fe90613c70565b80601f016020809104026020016040519081016040528092919081815260200182805461292a90613c70565b80156129775780601f1061294c57610100808354040283529160200191612977565b820191906000526020600020905b81548152906001019060200180831161295a57829003601f168201915b50505050508152602001600682018054806020026020016040519081016040528092919081815260200182805480156129d957602002820191906000526020600020905b81546001600160a01b031681526001909101906020018083116129bb575b50505091835250506007919091015460ff161515602090910152905060008080805b8460c0015151811015612bf857600089815260056020526040812060c0870151805183919085908110612a3057612a30613e78565b60200260200101516001600160a01b03166001600160a01b0316815260200190815260200160002060405180608001604052908160008201548152602001600182018054612a7d90613c70565b80601f0160208091040260200160405190810160405280929190818152602001828054612aa990613c70565b8015612af65780601f10612acb57610100808354040283529160200191612af6565b820191906000526020600020905b815481529060010190602001808311612ad957829003601f168201915b50505050508152602001600282018054612b0f90613c70565b80601f0160208091040260200160405190810160405280929190818152602001828054612b3b90613c70565b8015612b885780601f10612b5d57610100808354040283529160200191612b88565b820191906000526020600020905b815481529060010190602001808311612b6b57829003601f168201915b50505091835250506003919091015460ff161515602090910152606081015190915015612be55784612bb981613ea4565b8251909650612bc9915084613f0a565b9250603c816000015110612be55783612be181613ea4565b9450505b5080612bf081613ea4565b9150506129fb565b508260008411612c09576000612c1f565b83612c15846064613f23565b612c1f9190613f3a565b60008511612c2e576000612c38565b612c388584613f3a565b965096509650505050509193909250565b60008281526005602090815260408083206001600160a01b0385168452825280832081516080810190925280548252600181018054606094859487949093909291840191612c9690613c70565b80601f0160208091040260200160405190810160405280929190818152602001828054612cc290613c70565b8015612d0f5780601f10612ce457610100808354040283529160200191612d0f565b820191906000526020600020905b815481529060010190602001808311612cf257829003601f168201915b50505050508152602001600282018054612d2890613c70565b80601f0160208091040260200160405190810160405280929190818152602001828054612d5490613c70565b8015612da15780601f10612d7657610100808354040283529160200191612da1565b820191906000526020600020905b815481529060010190602001808311612d8457829003601f168201915b50505091835250506003919091015460ff161515602091820152815190820151604090920151909891975095509350505050565b336000908152600160205260408120600a0154610100900460ff16612e0c5760405162461bcd60e51b815260040161044290613c39565b336000908152600160205260409020600a015460ff16612e3e5760405162461bcd60e51b815260040161044290613dcc565b612e4c600780546001019055565b6000612e5760075490565b6040805160208101929092526bffffffffffffffffffffffff193360601b16908201526054016040516020818303038152906040528051906020012090506040518061010001604052808881526020018781526020018681526020018581526020016040518060400160405280600781526020016670656e64696e6760c81b8152508152602001848152602001600067ffffffffffffffff811115612efe57612efe613141565b604051908082528060200260200182016040528015612f27578160200160208202803683370190505b5081526001602091820152600083815260049091526040902081518190612f4e9082613cf9565b5060208201516001820190612f639082613cf9565b50604082015160028201556060820151600382015560808201516004820190612f8c9082613cf9565b5060a08201516005820190612fa19082613cf9565b5060c08201518051612fbd9160068401916020909101906130c7565b5060e091909101516007909101805460ff191691151591909117905560405181907f01cc58dcd5983c834936e93747192e03a1d4179dc2bf868e41eb1021e23736899061300b908a90613db9565b60405180910390a29695505050505050565b6000546001600160a01b031633146111eb5760405162461bcd60e51b815260206004820181905260248201527f4f776e61626c653a2063616c6c6572206973206e6f7420746865206f776e65726044820152606401610442565b600080546001600160a01b038381166001600160a01b0319831681178455604051919092169283917f8be0079c531659141344cd1fd0a4f28419497f9722a3daafe3b4186f6b6457e09190a35050565b82805482825590600052602060002090810192821561311c579160200282015b8281111561311c57825182546001600160a01b0319166001600160a01b039091161782556020909201916001909101906130e7565b5061312892915061312c565b5090565b5b80821115613128576000815560010161312d565b634e487b7160e01b600052604160045260246000fd5b604051601f8201601f1916810167ffffffffffffffff8111828210171561318057613180613141565b604052919050565b600082601f83011261319957600080fd5b813567ffffffffffffffff8111156131b3576131b3613141565b6131c6601f8201601f1916602001613157565b8181528460208386010111156131db57600080fd5b816020850160208301376000918101602001919091529392505050565b60008060008060008060008060006101208a8c03121561321757600080fd5b893567ffffffffffffffff8082111561322f57600080fd5b61323b8d838e01613188565b9a5060208c013591508082111561325157600080fd5b61325d8d838e01613188565b995060408c013591508082111561327357600080fd5b61327f8d838e01613188565b985060608c013591508082111561329557600080fd5b6132a18d838e01613188565b975060808c01359150808211156132b757600080fd5b6132c38d838e01613188565b965060a08c01359150808211156132d957600080fd5b6132e58d838e01613188565b955060c08c01359150808211156132fb57600080fd5b6133078d838e01613188565b945060e08c013591508082111561331d57600080fd5b6133298d838e01613188565b93506101008c013591508082111561334057600080fd5b5061334d8c828d01613188565b9150509295985092959850929598565b80356001600160a01b038116811461337457600080fd5b919050565b60008060006060848603121561338e57600080fd5b6133978461335d565b9250602084013567ffffffffffffffff808211156133b457600080fd5b6133c087838801613188565b935060408601359150808211156133d657600080fd5b506133e386828701613188565b9150509250925092565b6000602082840312156133ff57600080fd5b6134088261335d565b9392505050565b6000806040838503121561342257600080fd5b61342b8361335d565b9150602083013567ffffffffffffffff81111561344757600080fd5b61345385828601613188565b9150509250929050565b6000815180845260005b8181101561348357602081850181015186830182015201613467565b506000602082860101526020601f19601f83011685010191505092915050565b6080815260006134b6608083018761345d565b82810360208401526134c8818761345d565b905084604084015282810360608401526134e2818561345d565b979650505050505050565b60006101608083526135018184018f61345d565b90508281036020840152613515818e61345d565b90508281036040840152613529818d61345d565b9050828103606084015261353d818c61345d565b90508281036080840152613551818b61345d565b905082810360a0840152613565818a61345d565b905082810360c0840152613579818961345d565b905082810360e084015261358d818861345d565b90508281036101008401526135a2818761345d565b90508281036101208401526135b7818661345d565b9150506135c961014083018415159052565b9c9b505050505050505050505050565b6000602082840312156135eb57600080fd5b5035919050565b6001600160a01b0386811682528516602082015260a06040820181905260009061361e9083018661345d565b6060830194909452509015156080909101529392505050565b60e08152600061364a60e083018a61345d565b828103602084015261365c818a61345d565b9050876040840152866060840152828103608084015261367c818761345d565b905082810360a0840152613690818661345d565b91505082151560c083015298975050505050505050565b60a0815260006136ba60a083018861345d565b82810360208401526136cc818861345d565b905085604084015282810360608401526136e6818661345d565b91505082151560808301529695505050505050565b6101808152600061371061018083018f61345d565b8281036020840152613722818f61345d565b90508281036040840152613736818e61345d565b9050828103606084015261374a818d61345d565b9050828103608084015261375e818c61345d565b905082810360a0840152613772818b61345d565b905082810360c0840152613786818a61345d565b905082810360e084015261379a818961345d565b90508281036101008401526137af818861345d565b90508281036101208401526137c4818761345d565b9150506137d661014083018515159052565b8215156101608301529d9c50505050505050505050505050565b6000806000806000806000806000806101408b8d03121561381057600080fd5b8a3567ffffffffffffffff8082111561382857600080fd5b6138348e838f01613188565b9b5060208d013591508082111561384a57600080fd5b6138568e838f01613188565b9a5060408d013591508082111561386c57600080fd5b6138788e838f01613188565b995060608d013591508082111561388e57600080fd5b61389a8e838f01613188565b985060808d01359150808211156138b057600080fd5b6138bc8e838f01613188565b975060a08d01359150808211156138d257600080fd5b6138de8e838f01613188565b965060c08d01359150808211156138f457600080fd5b6139008e838f01613188565b955060e08d013591508082111561391657600080fd5b6139228e838f01613188565b94506101008d013591508082111561393957600080fd5b6139458e838f01613188565b93506101208d013591508082111561395c57600080fd5b506139698d828e01613188565b9150509295989b9194979a5092959850565b600080600080600060a0868803121561399357600080fd5b853594506139a36020870161335d565b935060408601359250606086013567ffffffffffffffff808211156139c757600080fd5b6139d389838a01613188565b935060808801359150808211156139e957600080fd5b506139f688828901613188565b9150509295509295909350565b60008060408385031215613a1657600080fd5b82359150602083013567ffffffffffffffff81111561344757600080fd5b60008060408385031215613a4757600080fd5b82359150613a576020840161335d565b90509250929050565b848152608060208201526000613a79608083018661345d565b8281036040840152613a8b818661345d565b915050821515606083015295945050505050565b60008060408385031215613ab257600080fd5b8235915060208084013567ffffffffffffffff80821115613ad257600080fd5b818601915086601f830112613ae657600080fd5b813581811115613af857613af8613141565b8060051b9150613b09848301613157565b8181529183018401918481019089841115613b2357600080fd5b938501935b83851015613b4857613b398561335d565b82529385019390850190613b28565b8096505050505050509250929050565b60008060408385031215613b6b57600080fd5b613b748361335d565b9150613a576020840161335d565b838152606060208201526000613b9b606083018561345d565b8281036040840152613bad818561345d565b9695505050505050565b600080600080600060a08688031215613bcf57600080fd5b853567ffffffffffffffff80821115613be757600080fd5b613bf389838a01613188565b96506020880135915080821115613c0957600080fd5b613c1589838a01613188565b9550604088013594506060880135935060808801359150808211156139e957600080fd5b6020808252601a908201527f496e737469747574696f6e20646f6573206e6f74206578697374000000000000604082015260600190565b600181811c90821680613c8457607f821691505b602082108103613ca457634e487b7160e01b600052602260045260246000fd5b50919050565b601f821115613cf457600081815260208120601f850160051c81016020861015613cd15750805b601f850160051c820191505b81811015613cf057828155600101613cdd565b5050505b505050565b815167ffffffffffffffff811115613d1357613d13613141565b613d2781613d218454613c70565b84613caa565b602080601f831160018114613d5c5760008415613d445750858301515b600019600386901b1c1916600185901b178555613cf0565b600085815260208120601f198616915b82811015613d8b57888601518255948401946001909101908401613d6c565b5085821015613da95787850151600019600388901b60f8161c191681555b5050505050600190811b01905550565b602081526000613408602083018461345d565b6020808252601b908201527f496e737469747574696f6e206973206e6f742076657269666965640000000000604082015260600190565b60208082526028908201527f53747564656e74206e6f7420656e726f6c6c656420696e207468697320696e736040820152673a34ba3aba34b7b760c11b606082015260800190565b602080825260139082015272115e185b48191bd95cc81b9bdd08195e1a5cdd606a1b604082015260600190565b634e487b7160e01b600052603260045260246000fd5b634e487b7160e01b600052601160045260246000fd5b600060018201613eb657613eb6613e8e565b5060010190565b6020808252825182820181905260009190848201906040850190845b81811015613efe5783516001600160a01b031683529284019291840191600101613ed9565b50909695505050505050565b80820180821115613f1d57613f1d613e8e565b92915050565b8082028115828204841417613f1d57613f1d613e8e565b600082613f5757634e487b7160e01b600052601260045260246000fd5b50049056fea26469706673582212206a8f48bee0c8dfc882994c40010856c081beaacb6de87e188d2ce187d417626d64736f6c63430008140033",
  "immutableReferences": {},
  "source": "// SPDX-License-Identifier: MIT\npragma solidity ^0.8.0;\n\nimport \"@openzeppelin/contracts/access/Ownable.sol\";\nimport \"@openzeppelin/contracts/security/Pausable.sol\";\nimport \"@openzeppelin/contracts/utils/Counters.sol\";\n\ncontract ExamManagement is Ownable, Pausable {\n    using Counters for Counters.Counter;\n\n    struct Institution {\n        string name;\n        string description;\n        string physicalAddress;\n        string email;\n        string phone;\n        string website;\n        string logo;\n        string ministry;\n        string university;\n        string college;\n        bool isVerified;\n        bool exists;\n    }\n\n    struct Student {\n        string name;\n        string email;\n        uint256 enrollmentDate;\n        string status; // \"active\", \"inactive\", \"graduated\"\n        bool exists;\n    }\n\n    struct Exam {\n        string title;\n        string description;\n        uint256 date;\n        uint256 duration;\n        string status; // \"pending\", \"active\", \"completed\"\n        string ipfsHash;\n        address[] students;\n        bool exists;\n    }\n\n    struct Certificate {\n        address student;\n        address issuer;\n        string ipfsHash;\n        uint256 issuedAt;\n        bool exists;\n    }\n\n    struct ExamResult {\n        uint256 score;\n        string grade;\n        string notes;\n        bool exists;\n    }\n\n    // Mappings\n    mapping(address => Institution) public institutions;\n    mapping(address => Student) public students;\n    mapping(address => mapping(address => bool)) public institutionStudents;\n    mapping(bytes32 => Exam) public exams;\n    mapping(bytes32 => mapping(address => ExamResult)) public examResults;\n    mapping(bytes32 => Certificate) public certificates;\n    \n    // Counters\n    Counters.Counter private _examIds;\n    Counters.Counter private _certificateIds;\n\n    // Events\n    event InstitutionRegistered(address indexed institution, string name);\n    event InstitutionVerified(address indexed institution);\n    event StudentAdded(address indexed institution, address indexed student);\n    event StudentStatusUpdated(address indexed student, string status);\n    event ExamCreated(bytes32 indexed examId, string title);\n    event ExamStatusUpdated(bytes32 indexed examId, string status);\n    event StudentsRegistered(bytes32 indexed examId, address[] students);\n    event ResultSubmitted(bytes32 indexed examId, address indexed student);\n    event CertificateIssued(bytes32 indexed certificateId, address indexed student);\n    event InstitutionProfileUpdated(address indexed institution, string name);\n\n    // Modifiers\n    modifier onlyVerifiedInstitution() {\n        require(institutions[msg.sender].exists, \"Institution does not exist\");\n        require(institutions[msg.sender].isVerified, \"Institution is not verified\");\n        _;\n    }\n\n    modifier onlyExistingExam(bytes32 examId) {\n        require(exams[examId].exists, \"Exam does not exist\");\n        _;\n    }\n\n    modifier onlyExistingStudent(address student) {\n        require(students[student].exists, \"Student does not exist\");\n        _;\n    }\n\n    // Institution Management\n    function registerInstitution(\n        string memory name,\n        string memory description,\n        string memory physicalAddress,\n        string memory email,\n        string memory phone,\n        string memory website,\n        string memory logo,\n        string memory ministry,\n        string memory university,\n        string memory college\n    ) external {\n        require(!institutions[msg.sender].exists, \"Institution already registered\");\n        \n        institutions[msg.sender] = Institution({\n            name: name,\n            description: description,\n            physicalAddress: physicalAddress,\n            email: email,\n            phone: phone,\n            website: website,\n            logo: logo,\n            ministry: ministry,\n            university: university,\n            college: college,\n            isVerified: false,\n            exists: true\n        });\n\n        emit InstitutionRegistered(msg.sender, name);\n    }\n\n    function verifyInstitution(address institution) external onlyOwner {\n        require(institutions[institution].exists, \"Institution does not exist\");\n        institutions[institution].isVerified = true;\n        emit InstitutionVerified(institution);\n    }\n\n    function updateInstitutionProfile(\n        string memory name,\n        string memory ministry,\n        string memory university,\n        string memory college,\n        string memory description,\n        string memory logo,\n        string memory website,\n        string memory email,\n        string memory phone\n    ) external {\n        require(institutions[msg.sender].exists, \"Institution does not exist\");\n        \n        Institution storage institution = institutions[msg.sender];\n        institution.name = name;\n        institution.ministry = ministry;\n        institution.university = university;\n        institution.college = college;\n        institution.description = description;\n        institution.logo = logo;\n        institution.website = website;\n        institution.email = email;\n        institution.phone = phone;\n\n        emit InstitutionProfileUpdated(msg.sender, name);\n    }\n\n    // Student Management\n    function addStudent(\n        address studentAddress,\n        string memory name,\n        string memory email\n    ) external onlyVerifiedInstitution {\n        require(!students[studentAddress].exists, \"Student already exists\");\n        \n        students[studentAddress] = Student({\n            name: name,\n            email: email,\n            enrollmentDate: block.timestamp,\n            status: \"active\",\n            exists: true\n        });\n\n        institutionStudents[msg.sender][studentAddress] = true;\n        emit StudentAdded(msg.sender, studentAddress);\n    }\n\n    function updateStudentStatus(\n        address studentAddress,\n        string memory newStatus\n    ) external onlyVerifiedInstitution onlyExistingStudent(studentAddress) {\n        require(institutionStudents[msg.sender][studentAddress], \"Student not enrolled in this institution\");\n        students[studentAddress].status = newStatus;\n        emit StudentStatusUpdated(studentAddress, newStatus);\n    }\n\n    // Exam Management\n    function createExam(\n        string memory title,\n        string memory description,\n        uint256 date,\n        uint256 duration,\n        string memory ipfsHash\n    ) external onlyVerifiedInstitution returns (bytes32) {\n        _examIds.increment();\n        bytes32 examId = keccak256(abi.encodePacked(_examIds.current(), msg.sender));\n        \n        exams[examId] = Exam({\n            title: title,\n            description: description,\n            date: date,\n            duration: duration,\n            status: \"pending\",\n            ipfsHash: ipfsHash,\n            students: new address[](0),\n            exists: true\n        });\n\n        emit ExamCreated(examId, title);\n        return examId;\n    }\n\n    function updateExamStatus(\n        bytes32 examId,\n        string memory newStatus\n    ) external onlyVerifiedInstitution onlyExistingExam(examId) {\n        exams[examId].status = newStatus;\n        emit ExamStatusUpdated(examId, newStatus);\n    }\n\n    function registerStudentsForExam(\n        bytes32 examId,\n        address[] memory studentAddresses\n    ) external onlyVerifiedInstitution onlyExistingExam(examId) {\n        for (uint i = 0; i < studentAddresses.length; i++) {\n            require(\n                institutionStudents[msg.sender][studentAddresses[i]],\n                \"One or more students not enrolled in this institution\"\n            );\n        }\n        exams[examId].students = studentAddresses;\n        emit StudentsRegistered(examId, studentAddresses);\n    }\n\n    // Result Management\n    function submitResult(\n        bytes32 examId,\n        address student,\n        uint256 score,\n        string memory grade,\n        string memory notes\n    ) external onlyVerifiedInstitution onlyExistingExam(examId) {\n        require(\n            institutionStudents[msg.sender][student],\n            \"Student not enrolled in this institution\"\n        );\n        \n        examResults[examId][student] = ExamResult({\n            score: score,\n            grade: grade,\n            notes: notes,\n            exists: true\n        });\n\n        emit ResultSubmitted(examId, student);\n    }\n\n    // Certificate Management\n    function issueCertificate(\n        address student,\n        string memory ipfsHash\n    ) external onlyVerifiedInstitution onlyExistingStudent(student) {\n        require(\n            institutionStudents[msg.sender][student],\n            \"Student not enrolled in this institution\"\n        );\n\n        _certificateIds.increment();\n        bytes32 certificateId = keccak256(abi.encodePacked(_certificateIds.current(), msg.sender, student));\n        \n        certificates[certificateId] = Certificate({\n            student: student,\n            issuer: msg.sender,\n            ipfsHash: ipfsHash,\n            issuedAt: block.timestamp,\n            exists: true\n        });\n\n        emit CertificateIssued(certificateId, student);\n    }\n\n    // View Functions\n    function getInstitution(address institution) external view returns (\n        string memory name,\n        string memory description,\n        string memory physicalAddress,\n        string memory email,\n        string memory phone,\n        string memory website,\n        string memory logo,\n        string memory ministry,\n        string memory university,\n        string memory college,\n        bool isVerified\n    ) {\n        Institution memory inst = institutions[institution];\n        return (\n            inst.name,\n            inst.description,\n            inst.physicalAddress,\n            inst.email,\n            inst.phone,\n            inst.website,\n            inst.logo,\n            inst.ministry,\n            inst.university,\n            inst.college,\n            inst.isVerified\n        );\n    }\n\n    function getStudent(address student) external view returns (\n        string memory name,\n        string memory email,\n        uint256 enrollmentDate,\n        string memory status\n    ) {\n        Student memory stud = students[student];\n        return (\n            stud.name,\n            stud.email,\n            stud.enrollmentDate,\n            stud.status\n        );\n    }\n\n    function getExamResult(bytes32 examId, address student) external view returns (\n        uint256 score,\n        string memory grade,\n        string memory notes\n    ) {\n        ExamResult memory result = examResults[examId][student];\n        return (\n            result.score,\n            result.grade,\n            result.notes\n        );\n    }\n\n    function getExamStatistics(bytes32 examId) external view returns (\n        uint256 totalStudents,\n        uint256 passRate,\n        uint256 averageScore\n    ) {\n        Exam memory exam = exams[examId];\n        uint256 total = 0;\n        uint256 passed = 0;\n        uint256 scoreSum = 0;\n        \n        for (uint i = 0; i < exam.students.length; i++) {\n            ExamResult memory result = examResults[examId][exam.students[i]];\n            if (result.exists) {\n                total++;\n                scoreSum += result.score;\n                if (result.score >= 60) {\n                    passed++;\n                }\n            }\n        }\n        \n        return (\n            total,\n            total > 0 ? (passed * 100) / total : 0,\n            total > 0 ? scoreSum / total : 0\n        );\n    }\n} ",
  "sourcePath": "H:\\projects\\education\\contracts\\ExamManagement.sol",
  "compiler": {
    "name": "solc",
    "version": "0.8.20+commit.a1b79de6.Emscripten.clang"
  },
  "schemaVersion": "3.4.16",
  "updatedAt": "2025-04-01T20:13:53.377Z",
  "networkType": "ethereum",
  "devdoc": {
    "events": {
      "Paused(address)": {
        "details": "Emitted when the pause is triggered by `account`."
      },
      "Unpaused(address)": {
        "details": "Emitted when the pause is lifted by `account`."
      }
    },
    "kind": "dev",
    "methods": {
      "owner()": {
        "details": "Returns the address of the current owner."
      },
      "paused()": {
        "details": "Returns true if the contract is paused, and false otherwise."
      },
      "renounceOwnership()": {
        "details": "Leaves the contract without owner. It will not be possible to call `onlyOwner` functions. Can only be called by the current owner. NOTE: Renouncing ownership will leave the contract without an owner, thereby disabling any functionality that is only available to the owner."
      },
      "transferOwnership(address)": {
        "details": "Transfers ownership of the contract to a new account (`newOwner`). Can only be called by the current owner."
      }
    },
    "version": 1
  },
  "userdoc": {
    "kind": "user",
    "methods": {},
    "version": 1
  }
}