{
  "contractName": "Identity",
  "abi": [
    {
      "inputs": [],
      "stateMutability": "nonpayable",
      "type": "constructor"
    },
    {
      "anonymous": false,
      "inputs": [
        {
          "indexed": true,
          "internalType": "address",
          "name": "institution",
          "type": "address"
        }
      ],
      "name": "InstitutionAdded",
      "type": "event"
    },
    {
      "anonymous": false,
      "inputs": [
        {
          "indexed": true,
          "internalType": "address",
          "name": "previousOwner",
          "type": "address"
        },
        {
          "indexed": true,
          "internalType": "address",
          "name": "newOwner",
          "type": "address"
        }
      ],
      "name": "OwnershipTransferred",
      "type": "event"
    },
    {
      "anonymous": false,
      "inputs": [
        {
          "indexed": false,
          "internalType": "address",
          "name": "account",
          "type": "address"
        }
      ],
      "name": "Paused",
      "type": "event"
    },
    {
      "anonymous": false,
      "inputs": [
        {
          "indexed": false,
          "internalType": "address",
          "name": "account",
          "type": "address"
        }
      ],
      "name": "Unpaused",
      "type": "event"
    },
    {
      "anonymous": false,
      "inputs": [
        {
          "indexed": true,
          "internalType": "address",
          "name": "userAddress",
          "type": "address"
        },
        {
          "indexed": false,
          "internalType": "enum Identity.UserRole",
          "name": "role",
          "type": "uint8"
        }
      ],
      "name": "UserRegistered",
      "type": "event"
    },
    {
      "anonymous": false,
      "inputs": [
        {
          "indexed": true,
          "internalType": "address",
          "name": "userAddress",
          "type": "address"
        }
      ],
      "name": "UserVerified",
      "type": "event"
    },
    {
      "inputs": [
        {
          "internalType": "address",
          "name": "",
          "type": "address"
        }
      ],
      "name": "institutions",
      "outputs": [
        {
          "internalType": "bool",
          "name": "",
          "type": "bool"
        }
      ],
      "stateMutability": "view",
      "type": "function",
      "constant": true
    },
    {
      "inputs": [],
      "name": "owner",
      "outputs": [
        {
          "internalType": "address",
          "name": "",
          "type": "address"
        }
      ],
      "stateMutability": "view",
      "type": "function",
      "constant": true
    },
    {
      "inputs": [],
      "name": "paused",
      "outputs": [
        {
          "internalType": "bool",
          "name": "",
          "type": "bool"
        }
      ],
      "stateMutability": "view",
      "type": "function",
      "constant": true
    },
    {
      "inputs": [],
      "name": "renounceOwnership",
      "outputs": [],
      "stateMutability": "nonpayable",
      "type": "function"
    },
    {
      "inputs": [
        {
          "internalType": "address",
          "name": "newOwner",
          "type": "address"
        }
      ],
      "name": "transferOwnership",
      "outputs": [],
      "stateMutability": "nonpayable",
      "type": "function"
    },
    {
      "inputs": [
        {
          "internalType": "address",
          "name": "",
          "type": "address"
        }
      ],
      "name": "users",
      "outputs": [
        {
          "internalType": "address",
          "name": "userAddress",
          "type": "address"
        },
        {
          "internalType": "string",
          "name": "ipfsHash",
          "type": "string"
        },
        {
          "internalType": "enum Identity.UserRole",
          "name": "role",
          "type": "uint8"
        },
        {
          "internalType": "bool",
          "name": "isVerified",
          "type": "bool"
        },
        {
          "internalType": "uint256",
          "name": "createdAt",
          "type": "uint256"
        }
      ],
      "stateMutability": "view",
      "type": "function",
      "constant": true
    },
    {
      "inputs": [
        {
          "internalType": "enum Identity.UserRole",
          "name": "_role",
          "type": "uint8"
        },
        {
          "internalType": "string",
          "name": "_ipfsHash",
          "type": "string"
        }
      ],
      "name": "registerUser",
      "outputs": [],
      "stateMutability": "nonpayable",
      "type": "function"
    },
    {
      "inputs": [
        {
          "internalType": "address",
          "name": "_userAddress",
          "type": "address"
        }
      ],
      "name": "verifyUser",
      "outputs": [],
      "stateMutability": "nonpayable",
      "type": "function"
    },
    {
      "inputs": [
        {
          "internalType": "string",
          "name": "_newIpfsHash",
          "type": "string"
        }
      ],
      "name": "updateUserIPFS",
      "outputs": [],
      "stateMutability": "nonpayable",
      "type": "function"
    },
    {
      "inputs": [
        {
          "internalType": "address",
          "name": "_userAddress",
          "type": "address"
        }
      ],
      "name": "getUserRole",
      "outputs": [
        {
          "internalType": "enum Identity.UserRole",
          "name": "",
          "type": "uint8"
        }
      ],
      "stateMutability": "view",
      "type": "function",
      "constant": true
    },
    {
      "inputs": [
        {
          "internalType": "address",
          "name": "_userAddress",
          "type": "address"
        }
      ],
      "name": "isVerifiedUser",
      "outputs": [
        {
          "internalType": "bool",
          "name": "",
          "type": "bool"
        }
      ],
      "stateMutability": "view",
      "type": "function",
      "constant": true
    },
    {
      "inputs": [],
      "name": "pause",
      "outputs": [],
      "stateMutability": "nonpayable",
      "type": "function"
    },
    {
      "inputs": [],
      "name": "unpause",
      "outputs": [],
      "stateMutability": "nonpayable",
      "type": "function"
    }
  ],
  "bytecode": "0x60806040523480156200001157600080fd5b506200001d33620000f8565b6000805460ff60a01b191681556040805160a08101825233815281516020818101845284825282015291908201908152600160208083018290524260409384015233600090815282825292909220835181546001600160a01b0319166001600160a01b0390911617815591830151908201906200009b908262000203565b50604082015160028201805460ff19166001836003811115620000c257620000c262000148565b021790555060608201516002820180549115156101000261ff0019909216919091179055608090910151600390910155620002cf565b600080546001600160a01b038381166001600160a01b0319831681178455604051919092169283917f8be0079c531659141344cd1fd0a4f28419497f9722a3daafe3b4186f6b6457e09190a35050565b634e487b7160e01b600052602160045260246000fd5b634e487b7160e01b600052604160045260246000fd5b600181811c908216806200018957607f821691505b602082108103620001aa57634e487b7160e01b600052602260045260246000fd5b50919050565b601f821115620001fe57600081815260208120601f850160051c81016020861015620001d95750805b601f850160051c820191505b81811015620001fa57828155600101620001e5565b5050505b505050565b81516001600160401b038111156200021f576200021f6200015e565b620002378162000230845462000174565b84620001b0565b602080601f8311600181146200026f5760008415620002565750858301515b600019600386901b1c1916600185901b178555620001fa565b600085815260208120601f198616915b82811015620002a0578886015182559484019460019091019084016200027f565b5085821015620002bf5787850151600019600388901b60f8161c191681555b5050505050600190811b01905550565b610cdb80620002df6000396000f3fe608060405234801561001057600080fd5b50600436106100cf5760003560e01c80638456cb591161008c578063b2d9767f11610066578063b2d9767f146101db578063c946c1b4146101fe578063d29bcc5c14610211578063f2fde38b1461022457600080fd5b80638456cb59146101945780638da5cb5b1461019c578063a87430ba146101b757600080fd5b806327820851146100d45780633da1c0c3146101195780633f4ba83a1461015d5780634d813120146101675780635c975abb1461017a578063715018a61461018c575b600080fd5b6101036100e2366004610935565b6001600160a01b031660009081526001602052604090206002015460ff1690565b604051610110919061099d565b60405180910390f35b61014d610127366004610935565b6001600160a01b0316600090815260016020526040902060020154610100900460ff1690565b6040519015158152602001610110565b610165610237565b005b610165610175366004610935565b610249565b600054600160a01b900460ff1661014d565b61016561036d565b61016561037f565b6000546040516001600160a01b039091168152602001610110565b6101ca6101c5366004610935565b61038f565b6040516101109594939291906109b1565b61014d6101e9366004610935565b60026020526000908152604090205460ff1681565b61016561020c366004610acb565b610458565b61016561021f366004610b08565b6104dc565b610165610232366004610935565b6106dd565b61023f610756565b6102476107b0565b565b610251610756565b6001600160a01b03818116600090815260016020526040902054166102b35760405162461bcd60e51b8152602060048201526013602482015272155cd95c88191bd95cc81b9bdd08195e1a5cdd606a1b60448201526064015b60405180910390fd5b6001600160a01b038116600090815260016020526040902060020154610100900460ff161561031c5760405162461bcd60e51b8152602060048201526015602482015274155cd95c88185b1c9958591e481d995c9a599a5959605a1b60448201526064016102aa565b6001600160a01b038116600081815260016020526040808220600201805461ff001916610100179055517fa6625d2d26e786e2f473111bea4b2fcdbbf1863d883a2359989ce3a103d2972a9190a250565b610375610756565b6102476000610805565b610387610756565b610247610855565b6001602081905260009182526040909120805491810180546001600160a01b03909316926103bc90610b5c565b80601f01602080910402602001604051908101604052809291908181526020018280546103e890610b5c565b80156104355780601f1061040a57610100808354040283529160200191610435565b820191906000526020600020905b81548152906001019060200180831161041857829003601f168201915b505050506002830154600390930154919260ff8082169361010090920416915085565b610460610898565b336000908152600160205260409020546001600160a01b03166104bb5760405162461bcd60e51b8152602060048201526013602482015272155cd95c88191bd95cc81b9bdd08195e1a5cdd606a1b60448201526064016102aa565b336000908152600160208190526040909120016104d88282610be5565b5050565b6104e4610898565b336000908152600160205260409020546001600160a01b0316156105405760405162461bcd60e51b81526020600482015260136024820152725573657220616c72656164792065786973747360681b60448201526064016102aa565b600082600381111561055457610554610965565b036105905760405162461bcd60e51b815260206004820152600c60248201526b496e76616c696420726f6c6560a01b60448201526064016102aa565b6040518060a00160405280336001600160a01b031681526020018281526020018360038111156105c2576105c2610965565b81526000602080830182905242604093840152338252600180825292909120835181546001600160a01b0319166001600160a01b039091161781559083015190918201906106109082610be5565b50604082015160028201805460ff1916600183600381111561063457610634610965565b02179055506060820151600280830180549215156101000261ff00199093169290921790915560809092015160039091015582600381111561067857610678610965565b0361069857336000908152600260205260409020805460ff191660011790555b336001600160a01b03167f8e18574f8a7333e6a87112742a55853a643e2f0550f4e1a3a2c3f1bb2994441d836040516106d1919061099d565b60405180910390a25050565b6106e5610756565b6001600160a01b03811661074a5760405162461bcd60e51b815260206004820152602660248201527f4f776e61626c653a206e6577206f776e657220697320746865207a65726f206160448201526564647265737360d01b60648201526084016102aa565b61075381610805565b50565b6000546001600160a01b031633146102475760405162461bcd60e51b815260206004820181905260248201527f4f776e61626c653a2063616c6c6572206973206e6f7420746865206f776e657260448201526064016102aa565b6107b86108e5565b6000805460ff60a01b191690557f5db9ee0a495bf2e6ff9c91a7834c1ba4fdd244a5e8aa4e537bd38aeae4b073aa335b6040516001600160a01b03909116815260200160405180910390a1565b600080546001600160a01b038381166001600160a01b0319831681178455604051919092169283917f8be0079c531659141344cd1fd0a4f28419497f9722a3daafe3b4186f6b6457e09190a35050565b61085d610898565b6000805460ff60a01b1916600160a01b1790557f62e78cea01bee320cd4e420270b5ea74000d11b0c9f74754ebdbfc544b05a2586107e83390565b600054600160a01b900460ff16156102475760405162461bcd60e51b815260206004820152601060248201526f14185d5cd8589b194e881c185d5cd95960821b60448201526064016102aa565b600054600160a01b900460ff166102475760405162461bcd60e51b815260206004820152601460248201527314185d5cd8589b194e881b9bdd081c185d5cd95960621b60448201526064016102aa565b60006020828403121561094757600080fd5b81356001600160a01b038116811461095e57600080fd5b9392505050565b634e487b7160e01b600052602160045260246000fd5b6004811061099957634e487b7160e01b600052602160045260246000fd5b9052565b602081016109ab828461097b565b92915050565b60018060a01b03861681526000602060a08184015286518060a085015260005b818110156109ed5788810183015185820160c0015282016109d1565b50600060c0828601015260c0601f19601f83011685010192505050610a15604083018661097b565b9215156060820152608001529392505050565b634e487b7160e01b600052604160045260246000fd5b600082601f830112610a4f57600080fd5b813567ffffffffffffffff80821115610a6a57610a6a610a28565b604051601f8301601f19908116603f01168101908282118183101715610a9257610a92610a28565b81604052838152866020858801011115610aab57600080fd5b836020870160208301376000602085830101528094505050505092915050565b600060208284031215610add57600080fd5b813567ffffffffffffffff811115610af457600080fd5b610b0084828501610a3e565b949350505050565b60008060408385031215610b1b57600080fd5b823560048110610b2a57600080fd5b9150602083013567ffffffffffffffff811115610b4657600080fd5b610b5285828601610a3e565b9150509250929050565b600181811c90821680610b7057607f821691505b602082108103610b9057634e487b7160e01b600052602260045260246000fd5b50919050565b601f821115610be057600081815260208120601f850160051c81016020861015610bbd5750805b601f850160051c820191505b81811015610bdc57828155600101610bc9565b5050505b505050565b815167ffffffffffffffff811115610bff57610bff610a28565b610c1381610c0d8454610b5c565b84610b96565b602080601f831160018114610c485760008415610c305750858301515b600019600386901b1c1916600185901b178555610bdc565b600085815260208120601f198616915b82811015610c7757888601518255948401946001909101908401610c58565b5085821015610c955787850151600019600388901b60f8161c191681555b5050505050600190811b0190555056fea264697066735822122074f650603505adba9f259fb3243f77de53a987485aa22f802fd85dc2e04bdac664736f6c63430008140033",
  "immutableReferences": {},
  "source": "// SPDX-License-Identifier: MIT\npragma solidity ^0.8.19;\n\nimport \"@openzeppelin/contracts/access/Ownable.sol\";\nimport \"@openzeppelin/contracts/security/Pausable.sol\";\n\ncontract Identity is Ownable, Pausable {\n    enum UserRole { NONE, STUDENT, INSTITUTION, EMPLOYER }\n    \n    struct User {\n        address userAddress;\n        string ipfsHash;  // IPFS hash containing user details\n        UserRole role;\n        bool isVerified;\n        uint256 createdAt;\n    }\n    \n    mapping(address => User) public users;\n    mapping(address => bool) public institutions;\n    \n    event UserRegistered(address indexed userAddress, UserRole role);\n    event UserVerified(address indexed userAddress);\n    event InstitutionAdded(address indexed institution);\n    \n    modifier onlyVerifiedInstitution() {\n        require(institutions[msg.sender] && users[msg.sender].isVerified, \"Not a verified institution\");\n        _;\n    }\n    \n    constructor() {\n        // Admin is automatically verified\n        users[msg.sender] = User(msg.sender, \"\", UserRole.NONE, true, block.timestamp);\n    }\n    \n    function registerUser(UserRole _role, string memory _ipfsHash) external whenNotPaused {\n        require(users[msg.sender].userAddress == address(0), \"User already exists\");\n        require(_role != UserRole.NONE, \"Invalid role\");\n        \n        users[msg.sender] = User(\n            msg.sender,\n            _ipfsHash,\n            _role,\n            false,\n            block.timestamp\n        );\n        \n        if (_role == UserRole.INSTITUTION) {\n            institutions[msg.sender] = true;\n        }\n        \n        emit UserRegistered(msg.sender, _role);\n    }\n    \n    function verifyUser(address _userAddress) external onlyOwner {\n        require(users[_userAddress].userAddress != address(0), \"User does not exist\");\n        require(!users[_userAddress].isVerified, \"User already verified\");\n        \n        users[_userAddress].isVerified = true;\n        emit UserVerified(_userAddress);\n    }\n    \n    function updateUserIPFS(string memory _newIpfsHash) external whenNotPaused {\n        require(users[msg.sender].userAddress != address(0), \"User does not exist\");\n        users[msg.sender].ipfsHash = _newIpfsHash;\n    }\n    \n    function getUserRole(address _userAddress) external view returns (UserRole) {\n        return users[_userAddress].role;\n    }\n    \n    function isVerifiedUser(address _userAddress) external view returns (bool) {\n        return users[_userAddress].isVerified;\n    }\n    \n    // Emergency functions\n    function pause() external onlyOwner {\n        _pause();\n    }\n    \n    function unpause() external onlyOwner {\n        _unpause();\n    }\n} ",
  "sourcePath": "H:\\projects\\education\\contracts\\Identity.sol",
  "compiler": {
    "name": "solc",
    "version": "0.8.20+commit.a1b79de6.Emscripten.clang"
  },
  "schemaVersion": "3.4.16",
  "updatedAt": "2025-04-01T20:13:53.341Z",
  "networkType": "ethereum",
  "devdoc": {
    "events": {
      "Paused(address)": {
        "details": "Emitted when the pause is triggered by `account`."
      },
      "Unpaused(address)": {
        "details": "Emitted when the pause is lifted by `account`."
      }
    },
    "kind": "dev",
    "methods": {
      "owner()": {
        "details": "Returns the address of the current owner."
      },
      "paused()": {
        "details": "Returns true if the contract is paused, and false otherwise."
      },
      "renounceOwnership()": {
        "details": "Leaves the contract without owner. It will not be possible to call `onlyOwner` functions. Can only be called by the current owner. NOTE: Renouncing ownership will leave the contract without an owner, thereby disabling any functionality that is only available to the owner."
      },
      "transferOwnership(address)": {
        "details": "Transfers ownership of the contract to a new account (`newOwner`). Can only be called by the current owner."
      }
    },
    "version": 1
  },
  "userdoc": {
    "kind": "user",
    "methods": {},
    "version": 1
  }
}