{
  "contractName": "SecurityUtils",
  "abi": [
    {
      "anonymous": false,
      "inputs": [
        {
          "indexed": true,
          "internalType": "address",
          "name": "account",
          "type": "address"
        },
        {
          "indexed": false,
          "internalType": "bool",
          "name": "isBlacklisted",
          "type": "bool"
        }
      ],
      "name": "BlacklistUpdated",
      "type": "event"
    },
    {
      "anonymous": false,
      "inputs": [
        {
          "indexed": true,
          "internalType": "address",
          "name": "triggeredBy",
          "type": "address"
        }
      ],
      "name": "EmergencyRecovery",
      "type": "event"
    },
    {
      "anonymous": false,
      "inputs": [
        {
          "indexed": true,
          "internalType": "address",
          "name": "triggeredBy",
          "type": "address"
        }
      ],
      "name": "EmergencyShutdown",
      "type": "event"
    },
    {
      "anonymous": false,
      "inputs": [
        {
          "indexed": true,
          "internalType": "address",
          "name": "previousOwner",
          "type": "address"
        },
        {
          "indexed": true,
          "internalType": "address",
          "name": "newOwner",
          "type": "address"
        }
      ],
      "name": "OwnershipTransferred",
      "type": "event"
    },
    {
      "anonymous": false,
      "inputs": [
        {
          "indexed": false,
          "internalType": "address",
          "name": "account",
          "type": "address"
        }
      ],
      "name": "Paused",
      "type": "event"
    },
    {
      "anonymous": false,
      "inputs": [
        {
          "indexed": false,
          "internalType": "address",
          "name": "account",
          "type": "address"
        }
      ],
      "name": "Unpaused",
      "type": "event"
    },
    {
      "inputs": [],
      "name": "MAX_BATCH_SIZE",
      "outputs": [
        {
          "internalType": "uint256",
          "name": "",
          "type": "uint256"
        }
      ],
      "stateMutability": "view",
      "type": "function",
      "constant": true
    },
    {
      "inputs": [],
      "name": "MIN_OPERATION_INTERVAL",
      "outputs": [
        {
          "internalType": "uint256",
          "name": "",
          "type": "uint256"
        }
      ],
      "stateMutability": "view",
      "type": "function",
      "constant": true
    },
    {
      "inputs": [
        {
          "internalType": "address",
          "name": "",
          "type": "address"
        }
      ],
      "name": "blacklisted",
      "outputs": [
        {
          "internalType": "bool",
          "name": "",
          "type": "bool"
        }
      ],
      "stateMutability": "view",
      "type": "function",
      "constant": true
    },
    {
      "inputs": [
        {
          "internalType": "address",
          "name": "",
          "type": "address"
        }
      ],
      "name": "lastOperationTime",
      "outputs": [
        {
          "internalType": "uint256",
          "name": "",
          "type": "uint256"
        }
      ],
      "stateMutability": "view",
      "type": "function",
      "constant": true
    },
    {
      "inputs": [],
      "name": "owner",
      "outputs": [
        {
          "internalType": "address",
          "name": "",
          "type": "address"
        }
      ],
      "stateMutability": "view",
      "type": "function",
      "constant": true
    },
    {
      "inputs": [],
      "name": "paused",
      "outputs": [
        {
          "internalType": "bool",
          "name": "",
          "type": "bool"
        }
      ],
      "stateMutability": "view",
      "type": "function",
      "constant": true
    },
    {
      "inputs": [],
      "name": "renounceOwnership",
      "outputs": [],
      "stateMutability": "nonpayable",
      "type": "function"
    },
    {
      "inputs": [
        {
          "internalType": "address",
          "name": "newOwner",
          "type": "address"
        }
      ],
      "name": "transferOwnership",
      "outputs": [],
      "stateMutability": "nonpayable",
      "type": "function"
    },
    {
      "inputs": [
        {
          "internalType": "address",
          "name": "_account",
          "type": "address"
        }
      ],
      "name": "addToBlacklist",
      "outputs": [],
      "stateMutability": "nonpayable",
      "type": "function"
    },
    {
      "inputs": [
        {
          "internalType": "address",
          "name": "_account",
          "type": "address"
        }
      ],
      "name": "removeFromBlacklist",
      "outputs": [],
      "stateMutability": "nonpayable",
      "type": "function"
    },
    {
      "inputs": [],
      "name": "emergencyShutdown",
      "outputs": [],
      "stateMutability": "nonpayable",
      "type": "function"
    },
    {
      "inputs": [],
      "name": "emergencyRecovery",
      "outputs": [],
      "stateMutability": "nonpayable",
      "type": "function"
    },
    {
      "inputs": [
        {
          "internalType": "address",
          "name": "_addr",
          "type": "address"
        }
      ],
      "name": "isContract",
      "outputs": [
        {
          "internalType": "bool",
          "name": "",
          "type": "bool"
        }
      ],
      "stateMutability": "view",
      "type": "function",
      "constant": true
    },
    {
      "inputs": [
        {
          "internalType": "uint256",
          "name": "_size",
          "type": "uint256"
        }
      ],
      "name": "validateBatchSize",
      "outputs": [],
      "stateMutability": "pure",
      "type": "function",
      "constant": true
    },
    {
      "inputs": [
        {
          "internalType": "address",
          "name": "_user",
          "type": "address"
        }
      ],
      "name": "checkRateLimit",
      "outputs": [],
      "stateMutability": "view",
      "type": "function",
      "constant": true
    }
  ],
  "bytecode": "0x608060405234801561001057600080fd5b50600160005561001f33610031565b6001805460ff60a01b19169055610083565b600180546001600160a01b038381166001600160a01b0319831681179093556040519116919082907f8be0079c531659141344cd1fd0a4f28419497f9722a3daafe3b4186f6b6457e090600090a35050565b610736806100926000396000f3fe608060405234801561001057600080fd5b50600436106100f55760003560e01c80636934535e11610097578063dbac26e911610066578063dbac26e9146101c7578063df408f63146101ea578063f2fde38b1461020a578063f3d73eb21461021d57600080fd5b80636934535e14610189578063715018a61461019c5780638da5cb5b146101a4578063cfdbf254146101bf57600080fd5b806344337ea1116100d357806344337ea1146101495780634e8bea041461015c578063537df3b6146101645780635c975abb1461017757600080fd5b80630df607e7146100fa57806316279055146101155780633403c2fc1461013f575b600080fd5b610102603c81565b6040519081526020015b60405180910390f35b61012f610123366004610690565b3b63ffffffff16151590565b604051901515815260200161010c565b610147610230565b005b610147610157366004610690565b61026d565b6101476102d3565b610147610172366004610690565b610310565b600154600160a01b900460ff1661012f565b610147610197366004610690565b610367565b6101476103d9565b6001546040516001600160a01b03909116815260200161010c565b610102603281565b61012f6101d5366004610690565b60026020526000908152604090205460ff1681565b6101026101f8366004610690565b60036020526000908152604090205481565b610147610218366004610690565b6103ed565b61014761022b3660046106c0565b610463565b6102386104ab565b610240610505565b60405133907f1fc1e771236d2e93bb9541cdcb4654ba0fd3fb615b48d829b7b365f03998512690600090a2565b6102756104ab565b6001600160a01b038116600081815260026020908152604091829020805460ff1916600190811790915591519182527f6a12b3df6cba4203bd7fd06b816789f87de8c594299aed5717ae070fac781bac91015b60405180910390a250565b6102db6104ab565b6102e3610565565b60405133907f21867dc03c8a7c783db4b956a15551a5195ec965c0d92ef2bc731ace8732c02090600090a2565b6103186104ab565b6001600160a01b0381166000818152600260209081526040808320805460ff19169055519182527f6a12b3df6cba4203bd7fd06b816789f87de8c594299aed5717ae070fac781bac91016102c8565b6001600160a01b03811660009081526003602052604090205461038c90603c906106d9565b4210156103d65760405162461bcd60e51b815260206004820152601360248201527214985d19481b1a5b5a5d08195e18d959591959606a1b60448201526064015b60405180910390fd5b50565b6103e16104ab565b6103eb60006105a1565b565b6103f56104ab565b6001600160a01b03811661045a5760405162461bcd60e51b815260206004820152602660248201527f4f776e61626c653a206e6577206f776e657220697320746865207a65726f206160448201526564647265737360d01b60648201526084016103cd565b6103d6816105a1565b60328111156103d65760405162461bcd60e51b815260206004820152601460248201527342617463682073697a6520746f6f206c6172676560601b60448201526064016103cd565b6001546001600160a01b031633146103eb5760405162461bcd60e51b815260206004820181905260248201527f4f776e61626c653a2063616c6c6572206973206e6f7420746865206f776e657260448201526064016103cd565b61050d6105f3565b6001805460ff60a01b1916600160a01b1790557f62e78cea01bee320cd4e420270b5ea74000d11b0c9f74754ebdbfc544b05a2586105483390565b6040516001600160a01b03909116815260200160405180910390a1565b61056d610640565b6001805460ff60a01b191690557f5db9ee0a495bf2e6ff9c91a7834c1ba4fdd244a5e8aa4e537bd38aeae4b073aa33610548565b600180546001600160a01b038381166001600160a01b0319831681179093556040519116919082907f8be0079c531659141344cd1fd0a4f28419497f9722a3daafe3b4186f6b6457e090600090a35050565b600154600160a01b900460ff16156103eb5760405162461bcd60e51b815260206004820152601060248201526f14185d5cd8589b194e881c185d5cd95960821b60448201526064016103cd565b600154600160a01b900460ff166103eb5760405162461bcd60e51b815260206004820152601460248201527314185d5cd8589b194e881b9bdd081c185d5cd95960621b60448201526064016103cd565b6000602082840312156106a257600080fd5b81356001600160a01b03811681146106b957600080fd5b9392505050565b6000602082840312156106d257600080fd5b5035919050565b808201808211156106fa57634e487b7160e01b600052601160045260246000fd5b9291505056fea2646970667358221220942bd4e1a3776d52faac08164577a7e789e0d5e1ae086727c17b05967e96665764736f6c63430008140033",
  "immutableReferences": {},
  "source": "// SPDX-License-Identifier: MIT\npragma solidity ^0.8.19;\n\nimport \"@openzeppelin/contracts/security/ReentrancyGuard.sol\";\nimport \"@openzeppelin/contracts/access/Ownable.sol\";\nimport \"@openzeppelin/contracts/security/Pausable.sol\";\n\ncontract SecurityUtils is ReentrancyGuard, Ownable, Pausable {\n    // Events\n    event EmergencyShutdown(address indexed triggeredBy);\n    event EmergencyRecovery(address indexed triggeredBy);\n    event BlacklistUpdated(address indexed account, bool isBlacklisted);\n\n    // State variables\n    mapping(address => bool) public blacklisted;\n    uint256 public constant MAX_BATCH_SIZE = 50;\n    uint256 public constant MIN_OPERATION_INTERVAL = 1 minutes;\n    mapping(address => uint256) public lastOperationTime;\n\n    // Modifiers\n    modifier notBlacklisted(address _account) {\n        require(!blacklisted[_account], \"Account is blacklisted\");\n        _;\n    }\n\n    modifier withCooldown() {\n        require(\n            block.timestamp >= lastOperationTime[msg.sender] + MIN_OPERATION_INTERVAL,\n            \"Operation too frequent\"\n        );\n        lastOperationTime[msg.sender] = block.timestamp;\n        _;\n    }\n\n    modifier validAddress(address _address) {\n        require(_address != address(0), \"Invalid address\");\n        require(_address != address(this), \"Cannot be contract address\");\n        _;\n    }\n\n    // Security functions\n    function addToBlacklist(address _account) external onlyOwner {\n        blacklisted[_account] = true;\n        emit BlacklistUpdated(_account, true);\n    }\n\n    function removeFromBlacklist(address _account) external onlyOwner {\n        blacklisted[_account] = false;\n        emit BlacklistUpdated(_account, false);\n    }\n\n    function emergencyShutdown() external onlyOwner {\n        _pause();\n        emit EmergencyShutdown(msg.sender);\n    }\n\n    function emergencyRecovery() external onlyOwner {\n        _unpause();\n        emit EmergencyRecovery(msg.sender);\n    }\n\n    // Utility functions\n    function isContract(address _addr) public view returns (bool) {\n        uint32 size;\n        assembly {\n            size := extcodesize(_addr)\n        }\n        return (size > 0);\n    }\n\n    function validateBatchSize(uint256 _size) public pure {\n        require(_size <= MAX_BATCH_SIZE, \"Batch size too large\");\n    }\n\n    // Rate limiting\n    function checkRateLimit(address _user) public view {\n        require(\n            block.timestamp >= lastOperationTime[_user] + MIN_OPERATION_INTERVAL,\n            \"Rate limit exceeded\"\n        );\n    }\n} ",
  "sourcePath": "H:\\projects\\education\\contracts\\security\\SecurityUtils.sol",
  "compiler": {
    "name": "solc",
    "version": "0.8.20+commit.a1b79de6.Emscripten.clang"
  },
  "schemaVersion": "3.4.16",
  "updatedAt": "2025-04-01T20:13:53.393Z",
  "networkType": "ethereum",
  "devdoc": {
    "events": {
      "Paused(address)": {
        "details": "Emitted when the pause is triggered by `account`."
      },
      "Unpaused(address)": {
        "details": "Emitted when the pause is lifted by `account`."
      }
    },
    "kind": "dev",
    "methods": {
      "owner()": {
        "details": "Returns the address of the current owner."
      },
      "paused()": {
        "details": "Returns true if the contract is paused, and false otherwise."
      },
      "renounceOwnership()": {
        "details": "Leaves the contract without owner. It will not be possible to call `onlyOwner` functions. Can only be called by the current owner. NOTE: Renouncing ownership will leave the contract without an owner, thereby disabling any functionality that is only available to the owner."
      },
      "transferOwnership(address)": {
        "details": "Transfers ownership of the contract to a new account (`newOwner`). Can only be called by the current owner."
      }
    },
    "version": 1
  },
  "userdoc": {
    "kind": "user",
    "methods": {},
    "version": 1
  }
}