{
  "contractName": "Identity",
  "abi": [
    {
      "inputs": [],
      "stateMutability": "nonpayable",
      "type": "constructor"
    },
    {
      "anonymous": false,
      "inputs": [
        {
          "indexed": true,
          "internalType": "address",
          "name": "admin",
          "type": "address"
        }
      ],
      "name": "AdminAdded",
      "type": "event"
    },
    {
      "anonymous": false,
      "inputs": [
        {
          "indexed": true,
          "internalType": "address",
          "name": "admin",
          "type": "address"
        }
      ],
      "name": "AdminRemoved",
      "type": "event"
    },
    {
      "anonymous": false,
      "inputs": [
        {
          "indexed": true,
          "internalType": "address",
          "name": "institution",
          "type": "address"
        }
      ],
      "name": "InstitutionAdded",
      "type": "event"
    },
    {
      "anonymous": false,
      "inputs": [
        {
          "indexed": true,
          "internalType": "address",
          "name": "previousOwner",
          "type": "address"
        },
        {
          "indexed": true,
          "internalType": "address",
          "name": "newOwner",
          "type": "address"
        }
      ],
      "name": "OwnershipTransferred",
      "type": "event"
    },
    {
      "anonymous": false,
      "inputs": [
        {
          "indexed": false,
          "internalType": "address",
          "name": "account",
          "type": "address"
        }
      ],
      "name": "Paused",
      "type": "event"
    },
    {
      "anonymous": false,
      "inputs": [
        {
          "indexed": false,
          "internalType": "address",
          "name": "account",
          "type": "address"
        }
      ],
      "name": "Unpaused",
      "type": "event"
    },
    {
      "anonymous": false,
      "inputs": [
        {
          "indexed": true,
          "internalType": "address",
          "name": "userAddress",
          "type": "address"
        },
        {
          "indexed": false,
          "internalType": "enum Identity.UserRole",
          "name": "role",
          "type": "uint8"
        }
      ],
      "name": "UserRegistered",
      "type": "event"
    },
    {
      "anonymous": false,
      "inputs": [
        {
          "indexed": true,
          "internalType": "address",
          "name": "userAddress",
          "type": "address"
        }
      ],
      "name": "UserVerified",
      "type": "event"
    },
    {
      "inputs": [
        {
          "internalType": "address",
          "name": "",
          "type": "address"
        }
      ],
      "name": "admins",
      "outputs": [
        {
          "internalType": "bool",
          "name": "",
          "type": "bool"
        }
      ],
      "stateMutability": "view",
      "type": "function",
      "constant": true
    },
    {
      "inputs": [
        {
          "internalType": "address",
          "name": "",
          "type": "address"
        }
      ],
      "name": "institutions",
      "outputs": [
        {
          "internalType": "bool",
          "name": "",
          "type": "bool"
        }
      ],
      "stateMutability": "view",
      "type": "function",
      "constant": true
    },
    {
      "inputs": [],
      "name": "owner",
      "outputs": [
        {
          "internalType": "address",
          "name": "",
          "type": "address"
        }
      ],
      "stateMutability": "view",
      "type": "function",
      "constant": true
    },
    {
      "inputs": [],
      "name": "paused",
      "outputs": [
        {
          "internalType": "bool",
          "name": "",
          "type": "bool"
        }
      ],
      "stateMutability": "view",
      "type": "function",
      "constant": true
    },
    {
      "inputs": [],
      "name": "renounceOwnership",
      "outputs": [],
      "stateMutability": "nonpayable",
      "type": "function"
    },
    {
      "inputs": [
        {
          "internalType": "address",
          "name": "newOwner",
          "type": "address"
        }
      ],
      "name": "transferOwnership",
      "outputs": [],
      "stateMutability": "nonpayable",
      "type": "function"
    },
    {
      "inputs": [
        {
          "internalType": "address",
          "name": "",
          "type": "address"
        }
      ],
      "name": "users",
      "outputs": [
        {
          "internalType": "address",
          "name": "userAddress",
          "type": "address"
        },
        {
          "internalType": "string",
          "name": "ipfsHash",
          "type": "string"
        },
        {
          "internalType": "enum Identity.UserRole",
          "name": "role",
          "type": "uint8"
        },
        {
          "internalType": "bool",
          "name": "isVerified",
          "type": "bool"
        },
        {
          "internalType": "uint256",
          "name": "createdAt",
          "type": "uint256"
        }
      ],
      "stateMutability": "view",
      "type": "function",
      "constant": true
    },
    {
      "inputs": [
        {
          "internalType": "address",
          "name": "_newAdmin",
          "type": "address"
        }
      ],
      "name": "addAdmin",
      "outputs": [],
      "stateMutability": "nonpayable",
      "type": "function"
    },
    {
      "inputs": [
        {
          "internalType": "address",
          "name": "_admin",
          "type": "address"
        }
      ],
      "name": "removeAdmin",
      "outputs": [],
      "stateMutability": "nonpayable",
      "type": "function"
    },
    {
      "inputs": [
        {
          "internalType": "address",
          "name": "_address",
          "type": "address"
        }
      ],
      "name": "isAdmin",
      "outputs": [
        {
          "internalType": "bool",
          "name": "",
          "type": "bool"
        }
      ],
      "stateMutability": "view",
      "type": "function",
      "constant": true
    },
    {
      "inputs": [
        {
          "internalType": "enum Identity.UserRole",
          "name": "_role",
          "type": "uint8"
        },
        {
          "internalType": "string",
          "name": "_ipfsHash",
          "type": "string"
        }
      ],
      "name": "registerUser",
      "outputs": [],
      "stateMutability": "nonpayable",
      "type": "function"
    },
    {
      "inputs": [
        {
          "internalType": "address",
          "name": "_userAddress",
          "type": "address"
        }
      ],
      "name": "verifyUser",
      "outputs": [],
      "stateMutability": "nonpayable",
      "type": "function"
    },
    {
      "inputs": [
        {
          "internalType": "string",
          "name": "_newIpfsHash",
          "type": "string"
        }
      ],
      "name": "updateUserIPFS",
      "outputs": [],
      "stateMutability": "nonpayable",
      "type": "function"
    },
    {
      "inputs": [
        {
          "internalType": "address",
          "name": "_userAddress",
          "type": "address"
        }
      ],
      "name": "getUserRole",
      "outputs": [
        {
          "internalType": "enum Identity.UserRole",
          "name": "",
          "type": "uint8"
        }
      ],
      "stateMutability": "view",
      "type": "function",
      "constant": true
    },
    {
      "inputs": [
        {
          "internalType": "address",
          "name": "_userAddress",
          "type": "address"
        }
      ],
      "name": "isVerifiedUser",
      "outputs": [
        {
          "internalType": "bool",
          "name": "",
          "type": "bool"
        }
      ],
      "stateMutability": "view",
      "type": "function",
      "constant": true
    },
    {
      "inputs": [
        {
          "internalType": "address",
          "name": "_userAddress",
          "type": "address"
        },
        {
          "internalType": "enum Identity.UserRole",
          "name": "_newRole",
          "type": "uint8"
        }
      ],
      "name": "updateUserRole",
      "outputs": [],
      "stateMutability": "nonpayable",
      "type": "function"
    },
    {
      "inputs": [],
      "name": "pause",
      "outputs": [],
      "stateMutability": "nonpayable",
      "type": "function"
    },
    {
      "inputs": [],
      "name": "unpause",
      "outputs": [],
      "stateMutability": "nonpayable",
      "type": "function"
    }
  ],
  "bytecode": "0x60806040523480156200001157600080fd5b506200001d336200003b565b6000805460ff60a01b1916905562000035336200008b565b620003d6565b600080546001600160a01b038381166001600160a01b0319831681178455604051919092169283917f8be0079c531659141344cd1fd0a4f28419497f9722a3daafe3b4186f6b6457e09190a35050565b6040805160a0810182526001600160a01b0383168152815160208181018452600082528201529081016004815260016020808301829052426040938401526001600160a01b03858116600090815283835293909320845181546001600160a01b031916941693909317835583015190820190620001099082620002e1565b50604082015160028201805460ff1916600183600481111562000130576200013062000226565b021790555060608201516002820180549115156101000261ff00199092169190911790556080909101516003918201556001600160a01b03821660008181526020929092526040808320805460ff191660011790555190917f44d6d25963f097ad14f29f06854a01f575648a1ef82f30e562ccd3889717e33991a2806001600160a01b03167f8e18574f8a7333e6a87112742a55853a643e2f0550f4e1a3a2c3f1bb2994441d6004604051620001e79190620003ad565b60405180910390a26040516001600160a01b038216907fa6625d2d26e786e2f473111bea4b2fcdbbf1863d883a2359989ce3a103d2972a90600090a250565b634e487b7160e01b600052602160045260246000fd5b634e487b7160e01b600052604160045260246000fd5b600181811c908216806200026757607f821691505b6020821081036200028857634e487b7160e01b600052602260045260246000fd5b50919050565b601f821115620002dc57600081815260208120601f850160051c81016020861015620002b75750805b601f850160051c820191505b81811015620002d857828155600101620002c3565b5050505b505050565b81516001600160401b03811115620002fd57620002fd6200023c565b62000315816200030e845462000252565b846200028e565b602080601f8311600181146200034d5760008415620003345750858301515b600019600386901b1c1916600185901b178555620002d8565b600085815260208120601f198616915b828110156200037e578886015182559484019460019091019084016200035d565b50858210156200039d5787850151600019600388901b60f8161c191681555b5050505050600190811b01905550565b6020810160058310620003d057634e487b7160e01b600052602160045260246000fd5b91905290565b6113d680620003e66000396000f3fe608060405234801561001057600080fd5b50600436106101165760003560e01c8063715018a6116100a2578063b2d9767f11610071578063b2d9767f1461027a578063c291fe621461029d578063c946c1b4146102b0578063d29bcc5c146102c3578063f2fde38b146102d657600080fd5b8063715018a61461022b5780638456cb59146102335780638da5cb5b1461023b578063a87430ba1461025657600080fd5b80633f4ba83a116100e95780633f4ba83a146101c8578063429b62e5146101d05780634d813120146101f35780635c975abb14610206578063704802751461021857600080fd5b80631785f53c1461011b57806324d7806c1461013057806327820851146101585780633da1c0c314610194575b600080fd5b61012e610129366004610fb5565b6102e9565b005b61014361013e366004610fb5565b6103ef565b60405190151581526020015b60405180910390f35b610187610166366004610fb5565b6001600160a01b031660009081526001602052604090206002015460ff1690565b60405161014f919061100f565b6101436101a2366004610fb5565b6001600160a01b0316600090815260016020526040902060020154610100900460ff1690565b61012e610429565b6101436101de366004610fb5565b60036020526000908152604090205460ff1681565b61012e610201366004610fb5565b610477565b600054600160a01b900460ff16610143565b61012e610226366004610fb5565b6105ac565b61012e61061c565b61012e61062e565b6000546040516001600160a01b03909116815260200161014f565b610269610264366004610fb5565b61067a565b60405161014f95949392919061101d565b610143610288366004610fb5565b60026020526000908152604090205460ff1681565b61012e6102ab3660046110a3565b610743565b61012e6102be366004611179565b610932565b61012e6102d13660046111b6565b610990565b61012e6102e4366004610fb5565b610bb0565b6102f1610c26565b6000546001600160a01b03166001600160a01b0316816001600160a01b0316036103585760405162461bcd60e51b815260206004820152601360248201527221b0b73737ba103932b6b7bb329037bbb732b960691b60448201526064015b60405180910390fd5b6001600160a01b03811660009081526003602052604090205460ff166103905760405162461bcd60e51b815260040161034f90611204565b6001600160a01b0381166000818152600360209081526040808320805460ff191690556001909152808220600201805461ffff19169055517fa3b62bc36326052d97ea62d63c3d60308ed4c3ea8ac079dd8499f1e9c4f80c0f9190a250565b6001600160a01b03811660009081526003602052604081205460ff168061042357506000546001600160a01b038381169116145b92915050565b3360009081526003602052604090205460ff168061045157506000546001600160a01b031633145b61046d5760405162461bcd60e51b815260040161034f90611204565b610475610c80565b565b3360009081526003602052604090205460ff168061049f57506000546001600160a01b031633145b6104bb5760405162461bcd60e51b815260040161034f90611204565b6001600160a01b03818116600090815260016020526040902054166104f25760405162461bcd60e51b815260040161034f9061122a565b6001600160a01b038116600090815260016020526040902060020154610100900460ff161561055b5760405162461bcd60e51b8152602060048201526015602482015274155cd95c88185b1c9958591e481d995c9a599a5959605a1b604482015260640161034f565b6001600160a01b038116600081815260016020526040808220600201805461ff001916610100179055517fa6625d2d26e786e2f473111bea4b2fcdbbf1863d883a2359989ce3a103d2972a9190a250565b6105b4610c26565b6001600160a01b03811660009081526003602052604090205460ff16156106105760405162461bcd60e51b815260206004820152601060248201526f20b63932b0b23c9030b71030b236b4b760811b604482015260640161034f565b61061981610cd5565b50565b610624610c26565b6104756000610e69565b3360009081526003602052604090205460ff168061065657506000546001600160a01b031633145b6106725760405162461bcd60e51b815260040161034f90611204565b610475610eb9565b6001602081905260009182526040909120805491810180546001600160a01b03909316926106a790611257565b80601f01602080910402602001604051908101604052809291908181526020018280546106d390611257565b80156107205780601f106106f557610100808354040283529160200191610720565b820191906000526020600020905b81548152906001019060200180831161070357829003601f168201915b505050506002830154600390930154919260ff8082169361010090920416915085565b3360009081526003602052604090205460ff168061076b57506000546001600160a01b031633145b6107875760405162461bcd60e51b815260040161034f90611204565b6001600160a01b03828116600090815260016020526040902054166107be5760405162461bcd60e51b815260040161034f9061122a565b60008160048111156107d2576107d2610fd7565b141580156107f2575060048160048111156107ef576107ef610fd7565b14155b61082d5760405162461bcd60e51b815260206004820152600c60248201526b496e76616c696420726f6c6560a01b604482015260640161034f565b6001600160a01b0382166000908152600160208190526040909120600201805460ff81169284929160ff19169083600481111561086c5761086c610fd7565b0217905550600282600481111561088557610885610fd7565b036108b2576001600160a01b0383166000908152600260205260409020805460ff191660011790556108ec565b60028160048111156108c6576108c6610fd7565b036108ec576001600160a01b0383166000908152600260205260409020805460ff191690555b826001600160a01b03167f8e18574f8a7333e6a87112742a55853a643e2f0550f4e1a3a2c3f1bb2994441d83604051610925919061100f565b60405180910390a2505050565b61093a610efc565b336000908152600160205260409020546001600160a01b031661096f5760405162461bcd60e51b815260040161034f9061122a565b3360009081526001602081905260409091200161098c82826112e0565b5050565b610998610efc565b336000908152600160205260409020546001600160a01b0316156109f45760405162461bcd60e51b81526020600482015260136024820152725573657220616c72656164792065786973747360681b604482015260640161034f565b6000826004811115610a0857610a08610fd7565b14158015610a2857506004826004811115610a2557610a25610fd7565b14155b610a635760405162461bcd60e51b815260206004820152600c60248201526b496e76616c696420726f6c6560a01b604482015260640161034f565b6040518060a00160405280336001600160a01b03168152602001828152602001836004811115610a9557610a95610fd7565b81526000602080830182905242604093840152338252600180825292909120835181546001600160a01b0319166001600160a01b03909116178155908301519091820190610ae390826112e0565b50604082015160028201805460ff19166001836004811115610b0757610b07610fd7565b02179055506060820151600280830180549215156101000261ff001990931692909217909155608090920151600390910155826004811115610b4b57610b4b610fd7565b03610b6b57336000908152600260205260409020805460ff191660011790555b336001600160a01b03167f8e18574f8a7333e6a87112742a55853a643e2f0550f4e1a3a2c3f1bb2994441d83604051610ba4919061100f565b60405180910390a25050565b610bb8610c26565b6001600160a01b038116610c1d5760405162461bcd60e51b815260206004820152602660248201527f4f776e61626c653a206e6577206f776e657220697320746865207a65726f206160448201526564647265737360d01b606482015260840161034f565b61061981610e69565b6000546001600160a01b031633146104755760405162461bcd60e51b815260206004820181905260248201527f4f776e61626c653a2063616c6c6572206973206e6f7420746865206f776e6572604482015260640161034f565b610c88610f49565b6000805460ff60a01b191690557f5db9ee0a495bf2e6ff9c91a7834c1ba4fdd244a5e8aa4e537bd38aeae4b073aa335b6040516001600160a01b03909116815260200160405180910390a1565b6040805160a0810182526001600160a01b0383168152815160208181018452600082528201529081016004815260016020808301829052426040938401526001600160a01b03858116600090815283835293909320845181546001600160a01b031916941693909317835583015190820190610d5190826112e0565b50604082015160028201805460ff19166001836004811115610d7557610d75610fd7565b021790555060608201516002820180549115156101000261ff00199092169190911790556080909101516003918201556001600160a01b03821660008181526020929092526040808320805460ff191660011790555190917f44d6d25963f097ad14f29f06854a01f575648a1ef82f30e562ccd3889717e33991a2806001600160a01b03167f8e18574f8a7333e6a87112742a55853a643e2f0550f4e1a3a2c3f1bb2994441d6004604051610e2a919061100f565b60405180910390a26040516001600160a01b038216907fa6625d2d26e786e2f473111bea4b2fcdbbf1863d883a2359989ce3a103d2972a90600090a250565b600080546001600160a01b038381166001600160a01b0319831681178455604051919092169283917f8be0079c531659141344cd1fd0a4f28419497f9722a3daafe3b4186f6b6457e09190a35050565b610ec1610efc565b6000805460ff60a01b1916600160a01b1790557f62e78cea01bee320cd4e420270b5ea74000d11b0c9f74754ebdbfc544b05a258610cb83390565b600054600160a01b900460ff16156104755760405162461bcd60e51b815260206004820152601060248201526f14185d5cd8589b194e881c185d5cd95960821b604482015260640161034f565b600054600160a01b900460ff166104755760405162461bcd60e51b815260206004820152601460248201527314185d5cd8589b194e881b9bdd081c185d5cd95960621b604482015260640161034f565b80356001600160a01b0381168114610fb057600080fd5b919050565b600060208284031215610fc757600080fd5b610fd082610f99565b9392505050565b634e487b7160e01b600052602160045260246000fd5b6005811061100b57634e487b7160e01b600052602160045260246000fd5b9052565b602081016104238284610fed565b60018060a01b03861681526000602060a08184015286518060a085015260005b818110156110595788810183015185820160c00152820161103d565b50600060c0828601015260c0601f19601f830116850101925050506110816040830186610fed565b9215156060820152608001529392505050565b803560058110610fb057600080fd5b600080604083850312156110b657600080fd5b6110bf83610f99565b91506110cd60208401611094565b90509250929050565b634e487b7160e01b600052604160045260246000fd5b600082601f8301126110fd57600080fd5b813567ffffffffffffffff80821115611118576111186110d6565b604051601f8301601f19908116603f01168101908282118183101715611140576111406110d6565b8160405283815286602085880101111561115957600080fd5b836020870160208301376000602085830101528094505050505092915050565b60006020828403121561118b57600080fd5b813567ffffffffffffffff8111156111a257600080fd5b6111ae848285016110ec565b949350505050565b600080604083850312156111c957600080fd5b6111d283611094565b9150602083013567ffffffffffffffff8111156111ee57600080fd5b6111fa858286016110ec565b9150509250929050565b6020808252600c908201526b2737ba1030b71030b236b4b760a11b604082015260600190565b602080825260139082015272155cd95c88191bd95cc81b9bdd08195e1a5cdd606a1b604082015260600190565b600181811c9082168061126b57607f821691505b60208210810361128b57634e487b7160e01b600052602260045260246000fd5b50919050565b601f8211156112db57600081815260208120601f850160051c810160208610156112b85750805b601f850160051c820191505b818110156112d7578281556001016112c4565b5050505b505050565b815167ffffffffffffffff8111156112fa576112fa6110d6565b61130e816113088454611257565b84611291565b602080601f831160018114611343576000841561132b5750858301515b600019600386901b1c1916600185901b1785556112d7565b600085815260208120601f198616915b8281101561137257888601518255948401946001909101908401611353565b50858210156113905787850151600019600388901b60f8161c191681555b5050505050600190811b0190555056fea2646970667358221220546169cb6a3a23f8a499ea99df9fc1d4ebdedaa7e67b7e34f69a40357ffff0df64736f6c63430008140033",
  "immutableReferences": {},
  "source": "// SPDX-License-Identifier: MIT\npragma solidity ^0.8.19;\n\nimport \"@openzeppelin/contracts/access/Ownable.sol\";\nimport \"@openzeppelin/contracts/security/Pausable.sol\";\n\ncontract Identity is Ownable, Pausable {\n    enum UserRole { NONE, STUDENT, INSTITUTION, EMPLOYER, ADMIN }\n    \n    struct User {\n        address userAddress;\n        string ipfsHash;  // IPFS hash containing user details\n        UserRole role;\n        bool isVerified;\n        uint256 createdAt;\n    }\n    \n    mapping(address => User) public users;\n    mapping(address => bool) public institutions;\n    mapping(address => bool) public admins;\n    \n    event UserRegistered(address indexed userAddress, UserRole role);\n    event UserVerified(address indexed userAddress);\n    event InstitutionAdded(address indexed institution);\n    event AdminAdded(address indexed admin);\n    event AdminRemoved(address indexed admin);\n    \n    modifier onlyVerifiedInstitution() {\n        require(institutions[msg.sender] && users[msg.sender].isVerified, \"Not a verified institution\");\n        _;\n    }\n    \n    modifier onlyAdmin() {\n        require(admins[msg.sender] || msg.sender == owner(), \"Not an admin\");\n        _;\n    }\n    \n    constructor() {\n        // Set deployer as admin\n        _setupAdmin(msg.sender);\n    }\n    \n    function _setupAdmin(address _admin) private {\n        users[_admin] = User(\n            _admin,\n            \"\",\n            UserRole.ADMIN,\n            true,\n            block.timestamp\n        );\n        admins[_admin] = true;\n        emit AdminAdded(_admin);\n        emit UserRegistered(_admin, UserRole.ADMIN);\n        emit UserVerified(_admin);\n    }\n    \n    function addAdmin(address _newAdmin) external onlyOwner {\n        require(!admins[_newAdmin], \"Already an admin\");\n        _setupAdmin(_newAdmin);\n    }\n    \n    function removeAdmin(address _admin) external onlyOwner {\n        require(_admin != owner(), \"Cannot remove owner\");\n        require(admins[_admin], \"Not an admin\");\n        admins[_admin] = false;\n        users[_admin].role = UserRole.NONE;\n        users[_admin].isVerified = false;\n        emit AdminRemoved(_admin);\n    }\n    \n    function isAdmin(address _address) public view returns (bool) {\n        return admins[_address] || _address == owner();\n    }\n    \n    function registerUser(UserRole _role, string memory _ipfsHash) external whenNotPaused {\n        require(users[msg.sender].userAddress == address(0), \"User already exists\");\n        require(_role != UserRole.NONE && _role != UserRole.ADMIN, \"Invalid role\");\n        \n        users[msg.sender] = User(\n            msg.sender,\n            _ipfsHash,\n            _role,\n            false,\n            block.timestamp\n        );\n        \n        if (_role == UserRole.INSTITUTION) {\n            institutions[msg.sender] = true;\n        }\n        \n        emit UserRegistered(msg.sender, _role);\n    }\n    \n    function verifyUser(address _userAddress) external onlyAdmin {\n        require(users[_userAddress].userAddress != address(0), \"User does not exist\");\n        require(!users[_userAddress].isVerified, \"User already verified\");\n        \n        users[_userAddress].isVerified = true;\n        emit UserVerified(_userAddress);\n    }\n    \n    function updateUserIPFS(string memory _newIpfsHash) external whenNotPaused {\n        require(users[msg.sender].userAddress != address(0), \"User does not exist\");\n        users[msg.sender].ipfsHash = _newIpfsHash;\n    }\n    \n    function getUserRole(address _userAddress) external view returns (UserRole) {\n        return users[_userAddress].role;\n    }\n    \n    function isVerifiedUser(address _userAddress) external view returns (bool) {\n        return users[_userAddress].isVerified;\n    }\n    \n    function updateUserRole(address _userAddress, UserRole _newRole) external onlyAdmin {\n        require(users[_userAddress].userAddress != address(0), \"User does not exist\");\n        require(_newRole != UserRole.NONE && _newRole != UserRole.ADMIN, \"Invalid role\");\n        \n        UserRole oldRole = users[_userAddress].role;\n        users[_userAddress].role = _newRole;\n        \n        if (_newRole == UserRole.INSTITUTION) {\n            institutions[_userAddress] = true;\n        } else if (oldRole == UserRole.INSTITUTION) {\n            institutions[_userAddress] = false;\n        }\n        \n        emit UserRegistered(_userAddress, _newRole);\n    }\n    \n    // Emergency functions\n    function pause() external onlyAdmin {\n        _pause();\n    }\n    \n    function unpause() external onlyAdmin {\n        _unpause();\n    }\n} ",
  "sourcePath": "H:\\projects\\education\\contracts\\Identity.sol",
  "compiler": {
    "name": "solc",
    "version": "0.8.20+commit.a1b79de6.Emscripten.clang"
  },
  "schemaVersion": "3.4.16",
  "updatedAt": "2025-04-04T20:20:29.170Z",
  "networkType": "ethereum",
  "devdoc": {
    "events": {
      "Paused(address)": {
        "details": "Emitted when the pause is triggered by `account`."
      },
      "Unpaused(address)": {
        "details": "Emitted when the pause is lifted by `account`."
      }
    },
    "kind": "dev",
    "methods": {
      "owner()": {
        "details": "Returns the address of the current owner."
      },
      "paused()": {
        "details": "Returns true if the contract is paused, and false otherwise."
      },
      "renounceOwnership()": {
        "details": "Leaves the contract without owner. It will not be possible to call `onlyOwner` functions. Can only be called by the current owner. NOTE: Renouncing ownership will leave the contract without an owner, thereby disabling any functionality that is only available to the owner."
      },
      "transferOwnership(address)": {
        "details": "Transfers ownership of the contract to a new account (`newOwner`). Can only be called by the current owner."
      }
    },
    "version": 1
  },
  "userdoc": {
    "kind": "user",
    "methods": {},
    "version": 1
  }
}